:100000000C942A000C9447000C9447000C94470071
:100010000C9447000C9447000C9447000C94470044
:100020000C9447000C9447000C9447000C94470034
:100030000C9447000C9447000C9447000C94470024
:100040000C9447000C9447000C9447000C94470014
:100050000C94470011241FBECFE5D8E0DEBFCDBF12
:1000600010E0A0E6B0E0EEE7F0E202C005900D92ED
:10007000A23BB107D9F720E0A2EBB0E001C01D928E
:10008000A23EB207E1F70E94C2000C943D100C940E
:10009000000081B3806381BB0895CF93C82F70E0C7
:1000A00080E090E00E942A0F23E333E343E250E430
:1000B0000E94DA0F0E94FC0EC13031F0C23039F4D8
:1000C00070E079BD68BD03C070E07BBD6ABDCF91B3
:1000D00008958FB581608FBD8EB588608EBD8FB558
:1000E000806A8FBD8EB583608EBD1BBC1ABC19BCE7
:1000F00018BC089597B18770987F892B87B9369A75
:100100003699FECF84B195B108950E947A00BC0162
:1001100080E090E00E94280F29E134E64EE553E4A8
:100120000E94940E0895CF92DF92EF92FF92CF93A8
:10013000C42F20E030E048EC52E40E94DA0F23E3C1
:1001400033E343E950E40E94940E6B017C016C2F71
:1001500070E080E090E00E942A0F20E030E048EC60
:1001600052E40E94940E9B01AC01C701B6010E94AB
:10017000DA0F0E94FC0ECB01CF91FF90EF90DF9041
:10018000CF90089586E18F9385E18F9384E1882E47
:1001900093E1A92ECC24CA94EE24EA940FEF2FEF1A
:1001A00042E161E180E10E944C0360E181E00E9454
:1001B000EC030E9449000E94690017BA8FEF88BBC8
:1001C00080E487B987E886B960E081E00E944D004D
:1001D00060E082E00E944D000F900F90C12CD12C66
:1001E0007601612C512CC0E0D0E0812C712C2CEADE
:1001F000A22E20E0B22E0FEA10E036E0932E80E02F
:100200000E9485009B01AC01C701B6010E94900EBF
:10021000882329F180E00E9485006B017C0120E0A9
:1002200030E048EC52E40E94DA0F23E333E343E981
:1002300050E40E94940E0E94FC0E462E662E572E0D
:100240004C2FC701B6010E949300882E792E682F8B
:1002500081E00E944D00642D82E00E944D00B29921
:1002600015C0C436D10508F421964C2FC701B6013C
:100270000E949300882E792E682F81E00E944D0005
:100280008CE291E00E9481010E94E603B39914C0C0
:10029000209709F021974C2FC701B6010E949300C7
:1002A000882E792E682F81E00E944D008CE291E02B
:1002B0000E9481010E94E603DF93CF937F928F9289
:1002C000BF92AF921F921F921F921F920E94FD0732
:1002D0005F926F921F930F931F921F921F929F9294
:1002E0000E94FD078DB79EB742960FB6F8949EBF49
:1002F0000FBE8DBF84CF009719F000C00197FBCFD0
:100300000895009741F0EFE8F1E03197F1F700C070
:1003100000000197F6CF0895E199FECF9FBB8EBBF9
:100320006DBBE29AE19A0895E199FECF9FBB8EBB27
:10033000E09A8DB308950F931F93CF93DF93EB0152
:100340008C01061B170BCE01800F911F69910E9433
:100350008C01FE01319780818111F5CFDF91CF9122
:100360001F910F9108950F931F93CF93DF93EB018C
:100370008C01061B170BCE01800F911F0E94940168
:1003800089938111F8CFDF91CF911F910F9108953B
:10039000282F27708695869586958130B9F028F0AC
:1003A000823029F18330A1F108953AB381E090E0E1
:1003B000022E01C0880F0A94EAF7662319F0382B41
:1003C0003ABB0895809583238ABB089537B381E0B3
:1003D00090E0022E01C0880F0A94EAF7662319F014
:1003E000382B37BB08958095832387BB089534B39A
:1003F00081E090E0022E01C0880F0A94EAF766239C
:1004000019F0382B34BB08958095832384BB08955D
:1004100031B381E090E0022E01C0880F0A94EAF720
:10042000662319F0382B31BB08958095832381BB57
:100430000895282F27708695869586958130B9F086
:1004400028F0823029F18330A1F108953BB381E097
:1004500090E0022E01C0880F0A94EAF7662319F093
:10046000382B3BBB0895809583238BBB089538B30D
:1004700081E090E0022E01C0880F0A94EAF766231B
:1004800019F0382B38BB08958095832388BB0895D5
:1004900035B381E090E0022E01C0880F0A94EAF79C
:1004A000662319F0382B35BB08958095832385BBCF
:1004B000089532B381E090E0022E01C0880F0A94C3
:1004C000EAF7662319F0382B32BB08958095832311
:1004D00082BB0895282F2770869586958695813052
:1004E00049F030F0823041F0833079F480B305C0B8
:1004F00089B303C086B301C083B390E002C0959571
:1005000087952A95E2F78170089580E00895CF934A
:10051000C82F84FB662760F98091DC000E941902D5
:10052000C5FB662760F98091DD000E941902C6FBB9
:10053000662760F98091DE000E9419026C2F661F09
:100540006627661F8091DF00CF910C941902CF932C
:10055000DF9360E08091D5000E94190260E08091F5
:10056000D6000E941902C7EDD0E061E088810E94A8
:1005700019028AE090E00E947B0160E08881DF91AF
:10058000CF910C941902CF93C82F682F617080917E
:10059000D8000E941902C1FB662760F98091D9003A
:1005A0000E941902C2FB662760F98091DA000E945E
:1005B0001902C3FB662760F98091DB00CF910C9490
:1005C0001902CF93DF9361E08091D5000E94190258
:1005D00060E08091D6000E941902C7EDD0E061E092
:1005E00088810E9419028AE090E00E947B0160E00D
:1005F0008881DF91CF910C941902CF938091D6001E
:100600008F3F09F444C060E08091DF000E94C80180
:1006100060E08091D5000E94190261E08091D600CF
:100620000E94190260E08091D7000E9419028AE0BE
:1006300090E00E947B0161E08091D7000E94190246
:100640008AE090E00E947B018091DF000E946A02B4
:10065000C82F8091D400843091F460E08091D7005D
:100660000E9419028AE090E00E947B0161E0809183
:10067000D7000E9419028AE090E00E947B01C1111C
:10068000D1CF61E08091DF00CF910C94C80181E06F
:1006900090E0CF910C9481018F929F92AF92BF9284
:1006A000CF92DF92EF92FF920F931F93CF93DF933E
:1006B000CDB7DEB7D82E162FF42E9F84B88880933E
:1006C000D5006093D6004093D7002093D8000093C4
:1006D000D900E092DA00C092DB00A092DC008092A8
:1006E000DD009092DE00B092DF002F3F39F00F3F27
:1006F00029F08FEFE81611F0C81204C084E080934F
:10070000D40013C088E08093D40061E0822F0E945F
:10071000C80161E0802F0E94C80161E08E2D0E9417
:10072000C80161E08C2D0E94C80161E08D2D0E94FE
:10073000C80161E0812F0E94C80161E08F2D0E94F5
:10074000C80161E08A2D0E94C80161E0882D0E94E5
:10075000C80161E0892D0E94C80161E08B2DDF9105
:10076000CF911F910F91FF90EF90DF90CF90BF90AE
:10077000AF909F908F900C94C801CF93C82F0E9488
:10078000FD028091D400883021F48C2F0E94C30296
:1007900007C08C2F0E9487020E94A702C295C07FCB
:1007A0008C2F0E948702CF910C94A7029091D200C7
:1007B000891758F41092E0008093E100E82FF0E0F0
:1007C000E05AFF4F80810C94BD03089581E00E94A0
:1007D000BD0380E00C94D6036093D3008093D200D5
:1007E000833040F06F7080E9860F80936200605321
:1007F0006093630084E690E00E9481018091D400C0
:10080000883011F488E327C0843039F580E30E94F2
:1008100087020E94A70284E690E00E94810180E3A3
:100820000E9487020E94A70288EC90E00E947B0150
:1008300080E30E9487020E94A70288EC90E00E9459
:100840007B0180E20E9487020E94A70288EC90E070
:100850000E947B0188E20E94BD038EE00E94BD03DE
:100860000C94E6038091E1008F5F8093E100109289
:10087000E0009091D200891710F01092E100E09111
:10088000E100F0E0E05AFF4F80810C94BD039091AD
:10089000D200891780F49091D300691760F46093B7
:1008A000E0008093E100E82FF0E0E05AFF4F808104
:1008B000860F0C94BD030895CF93C82F9091E0004C
:1008C0008091D300981760F4CA3051F00E94FD0265
:1008D0008091D400883049F48C2F0E94C3020CC050
:1008E0000E943204CA3091F0F1CF8C2F0E9487020F
:1008F0000E94E102C295C07F8C2F0E9487020E9455
:10090000E1028091E0008F5F8093E000CF91089535
:10091000AF92BF92CF92DF92EF92FF920F931F930D
:10092000CF93DF931F92CDB7DEB76B017C01AA2472
:10093000A394B12C4423F1F00FEF040FC50102C0C2
:10094000880F991F0A95E2F78C01222717FD209541
:10095000322F0C211D212E213F2181E0012B022B62
:10096000032B09F480E0805D49830E945C04498187
:100970004150E0CF0F90DF91CF911F910F91FF90E9
:10098000EF90DF90CF90BF90AF900895CF93DF931B
:10099000EC018991882319F00E945C04FACFDF9161
:1009A000CF910895DF92EF92FF920F931F93CF9311
:1009B000DF93D82E8B018091D200D81608F0D12C6D
:1009C0008CE00E94BD03E12CE801CE0DD11D888191
:1009D000882309F18D2D0E94D603F12C8091D3003C
:1009E000F81650F4FE01EF0DF11D8081882321F0EF
:1009F0000E945C04F394F2CF8091D300F81628F49F
:100A000080E20E945C04F394F7CF88EC90E00E94AF
:100A10008101E394D9CF8EE0DF91CF911F910F91A7
:100A2000FF90EF90DF900C94BD037F928F929F9286
:100A3000AF92BF92CF92DF92EF92FF920F931F93EC
:100A4000CF93DF93CDB7DEB72A970FB6F894DEBF0A
:100A50000FBECDBF782ECB01BA01C22E22E072129A
:100A600016C04C2D2A960FB6F894DEBF0FBECDBF30
:100A7000DF91CF911F910F91FF90EF90DF90CF907A
:100A8000BF90AF909F908F907F900C9488046115D9
:100A900071058105910549F0FE0131967F018F01B5
:100AA000872C912CA12CB12C29C080E32A960FB65B
:100AB000F894DEBF0FBECDBFDF91CF911F910F9194
:100AC000FF90EF90DF90CF90BF90AF909F908F906E
:100AD0007F900C945C04611571058105910599F076
:100AE000D62EA50194010E94E70DCA01B901729E9C
:100AF000D0181124F801D0820F5F1F4FD02EDE18BE
:100B0000DC1448F310C0FAE0FC1568F0F80110821C
:100B1000F3CFFE01ED0DF11D80818A3038F0895C44
:100B20000E945C04DA94D110F4CF02C0805DF8CF4B
:100B30002A960FB6F894DEBF0FBECDBFDF91CF91DE
:100B40001F910F91FF90EF90DF90CF90BF90AF90EB
:100B50009F908F907F9008952F923F925F926F9217
:100B60007F928F929F92AF92BF92CF92DF92EF923D
:100B7000FF920F931F93CF93DF93CDB7DEB72E97DE
:100B80000FB6F894DEBF0FBECDBF682E722E4701A0
:100B900022E0821341C0EE24E394F12CA4E0880CFF
:100BA000991CAA95E1F7772009F4A9C08FEF870D6A
:100BB000D70102C0AA0FBB1F8A95E2F7CD01AA2771
:100BC00097FDA095BA2F84239523A623B72321E070
:100BD000892B8A2B8B2B09F420E0E0E3DE2ED20E4A
:100BE0008D2D4B875C876D877E870E945C04D801C2
:100BF000ED91FC911197E80DF91DEE54FF4FD08255
:100C00008D919C91119701968D939C937A947E85FA
:100C10006D855C854B85C7CF411551056105710513
:100C200009F454C0FE0131961F015F01C82ED12C7A
:100C3000E12CF12C5A2C52185714B8F441155105D7
:100C40006105710579F0542ECB01BA01A701960117
:100C50000E94E70DBA01A901649E50181124D50124
:100C60005C920BC0BAE0B71530F434E0880C991CE4
:100C70003A95E1F724C0F5011082FFEFAF1ABF0AE1
:100C8000D9CFFE01E50DF11D90819A30D8F087E3B0
:100C9000890F9B870E945C04D801ED91FC919B8594
:100CA0009A3090F0995CE80DF91DEE54FF4F908357
:100CB000F801808191810196918380835A9451102B
:100CC000E0CF1DC080E3E4CF905DEDCF80E30E94D4
:100CD0005C04D8018D919C911197F70124E0EE0FEF
:100CE000FF1F2A95E1F7E80FF91FEE54FF4F80E34D
:100CF00080838D919C91119701968D939C932E9654
:100D00000FB6F894DEBF0FBECDBFDF91CF911F911C
:100D10000F91FF90EF90DF90CF90BF90AF909F909A
:100D20008F907F906F905F903F902F9008958F925B
:100D30009F92AF92BF92CF92DF92EF92FF926B01A0
:100D40007C010E94FC0E4B015C012FEFAB01BC014A
:100D50008AE00E9415058EE20E945C04C501B40180
:100D60000E94280F9B01AC01C701B6010E942B0E07
:100D700020E034E244E759E40E94DA0F0E94FC0EBE
:100D8000AB01BC012FEF8AE0FF90EF90DF90CF9096
:100D9000BF90AF909F908F900C941505CF93C82F64
:100DA0000E94FD028091D400883021F48C2F0E9493
:100DB000C30207C08C2F0E9487020E94E102C295E5
:100DC000C07F8C2F0E948702CF910C94E102AF92DA
:100DD000BF92CF92DF92EF92FF920F931F93CF9328
:100DE000DF93CDB7DEB7C854D1090FB6F894DEBF94
:100DF0000FBECDBF88E0E4E6F0E0DE01AF5BBF4FA1
:100E000001900D928A95E1F780E4ECE6F0E0DE01D6
:100E1000119601900D928A95E1F78E010F5B1F4F9D
:100E2000CE0101966C01580198E0A90EB11CF801A1
:100E300081918F010E94BD03E12CF12CF601EE0D92
:100E4000FF1D80810E94CE06FFEFEF1AFF0A88E0A7
:100E5000E816F10499F798E0C90ED11C0A151B0594
:100E600031F7C85BDF4F0FB6F894DEBF0FBECDBFC2
:100E7000DF91CF911F910F91FF90EF90DF90CF9076
:100E8000BF90AF9008958130910511F480E021C0AA
:100E90008230910511F481E01CC08330910511F47A
:100EA00082E017C08430910511F483E012C08530D0
:100EB000910511F484E00DC08630910511F485E0B0
:100EC00008C08730910511F486E003C0089719F433
:100ED00087E00C94CE0608958FEF0C94CE068FE732
:100EE0000C94CE068EE70C94CE0685EA0C94CE06C2
:100EF000DF92EF92FF920F931F93CF93DF93FC014A
:100F0000EB018A01B4E0000F111FBA95E1F7D08020
:100F1000DD2009F46AC085E27F01D81252C082E068
:100F2000E80EF11CD1808EE3D816B1F18D15C8F012
:100F30008EE2D81609F442C08D1540F085E2D8162D
:100F400049F18CE2D8124FC085E029C08BE3D81656
:100F500069F18CE3D81611F18AE3D81244C086E017
:100F60001EC08DE5D81639F18D1548F08FE3D816DF
:100F7000F9F08BE5D81237C00E946F0728C08CE7C4
:100F8000D81681F08DE7D81679F08BE7D8122BC0F0
:100F900083E005C085E219C080E001C081E00E94C5
:100FA000CE0615C082E0FBCF84E0F9CF87E0F7CF13
:100FB0000E946C070CC00E94720709C00E9475074E
:100FC00006C08FEFE81AF80A8D2D0E945C04E881B4
:100FD000F981E00FF11FEE54FF4FD0828881998193
:100FE000019699838883F70192CFDF91CF911F916A
:100FF0000F91FF90EF90DF9008956F927F928F9204
:101000009F92AF92BF92CF92DF92EF92FF920F9397
:101010001F93CF93DF93CDB7DEB727970FB6F89422
:10102000DEBF0FBECDBF188D098DAA8CBB8C6C8C1A
:101030007D8C612F8A2D0E94470419830A838E01BB
:10104000025E1F4F650184E0CC0CDD1C8A95E1F740
:10105000F3019080992009F493C185E298127BC135
:1010600043019FEF891A990AF301918180ED890F5D
:101070008A3080F420E080ED890F8A3060F4FAE055
:101080002F9F800D1124282F8FEF881A980AF401C2
:101090009081F1CF2FEF953509F4E7C080F59E33AD
:1010A00009F465C0B8F49E3209F476C040F4953274
:1010B00009F43FC19C3209F05EC185E05BC09B33FF
:1010C00009F460C09C3309F454C09A3309F053C149
:1010D00086E050C0933409F463C038F49F3309F4B8
:1010E00053C0923409F4F6C046C1963409F406C1DF
:1010F000933509F40FC1943409F48BC03CC1963682
:1011000009F4FCC0B8F49D3509F442C050F4983598
:1011100009F4C4C09B3509F02EC19B830E946F0760
:101120000CC19336E9F1943609F450C0923609F0B7
:1011300022C1C3C0983709F4A7C080F4933709F4DB
:10114000E9C0953709F017C13801F2E06F0E711C44
:10115000F8014081518160E070E090C09C3771F0EF
:101160009D3771F09B3709F006C183E003C080E032
:1011700001C081E09B830E94CE06DFC082E0FACFEF
:1011800084E0F8CF87E0F6CF9B830E946C07D5C040
:101190009B830E947207D1C09B830E947507CDC0BC
:1011A0003801F2E06F0E711CF8011081812F0E944E
:1011B0005C0429813A81F601E20FF31FEE54FF4FE0
:1011C00010832F5F3F4F3A832983B1C03801F2E08B
:1011D0006F0E711CF8010081118117FF14C0119569
:1011E000019511098DE22F830E945C0489819A8107
:1011F000F601E80FF91FEE54FF4F3DE230830196F0
:101200009A8389832F81A801662757FD6095762FE1
:1012100035C03801F4E06F0E711CF8014081518136
:101220006281738177FF2AC07095609550954195D2
:101230005F4F6F4F7F4F8DE22F834B835C836D83B6
:101240007E830E945C0489819A81F601E80FF91F70
:10125000EE54FF4F3DE2308301969A8389837E816D
:101260006D815C814B812F8109C03801F4E06F0EE4
:10127000711CF801408151816281738175018E0179
:101280000F5F1F4F8AE037C03801F2E06F0E711C0C
:10129000F8014081518160E070E009C03801F4E05C
:1012A0006F0E711CF801408151816281738175015B
:1012B0008E010F5F1F4F80E11EC03801F2E06F0EFC
:1012C000711CF801408151812F3F09F420E160E059
:1012D00070E00CC03801F4E06F0E711CF801408121
:1012E0005181628173812F3F09F420E175018E01E4
:1012F0000F5F1F4F82E00E94AC0519C03801F4E077
:101300006F0E711CF80160817181828193810E944E
:1013100097060DC03801F2E06F0E711CA501BE01E9
:101320006F5F7F4FF801808191810E947807830170
:1013300022C085E29B830E945C0429813A81F601E8
:10134000E20FF31FEE54FF4F9B8190832F5F3F4FBF
:101350003A83298310C0892D0E945C0429813A8137
:10136000F601E20FF31FEE54FF4F90822F5F3F4FC5
:101370003A83298343013401FFEF6F1A7F0A68CE55
:1013800027960FB6F894DEBF0FBECDBFDF91CF9189
:101390001F910F91FF90EF90DF90CF90BF90AF9093
:1013A0009F908F907F906F900895FC018281938130
:1013B00086179707ECF082EB90E09F938F931F9234
:1013C0001F921F921F920E94FD0782EC90E09F9354
:1013D0008F931F921F921F9281E08F930E94FD07AF
:1013E0008DB79EB70C960FB6F8949EBF0FBE8DBFFB
:1013F0000895CF92DF92EF92FF920F931F93CF93B6
:10140000DF9300D000D01F92CDB7DEB7FE017096FB
:10141000E190F1906F01F7018081882309F43DC1CB
:10142000853209F032C187010F5F1F4FF7018181BB
:1014300090ED980F9A3078F420E090ED980F9A3064
:1014400058F4FAE02F9F900D1124292F0F5F1F4FA2
:10145000F8018081F2CF2FEF853509F4BCC080F50B
:101460008E3309F463C0B8F48E3209F471C040F4CD
:10147000853209F406C18C3209F00AC185E05FC0EB
:101480008B3309F45BC08C3309F452C08A3309F002
:10149000FFC086E054C0833409F45DC038F48F3354
:1014A00009F450C0823409F4C5C0F2C0863409F48E
:1014B000D1C0833509F4DAC0843409F46CC0E8C0C3
:1014C000863609F4C7C0A8F48D35F9F148F488359B
:1014D00009F496C08B3509F0DBC00E946F07D8C0B5
:1014E0008336C9F1843609F43FC0823609F0D0C092
:1014F00094C0883709F47AC080F4833709F4B6C001
:10150000853709F0C5C07601F2E0EF0EF11CF60157
:101510004081518160E070E067C08C3759F08D37B1
:1015200059F08B3709F0B4C083E009C080E007C0F0
:1015300081E005C082E003C084E001C087E00E9432
:10154000CE06A6C00E946C07A3C00E947207A0C06E
:101550000E9475079DC07601F2E0EF0EF11CF601C6
:1015600080810E945C048BC07601F2E0EF0EF11CDA
:10157000F601C080D180D7FE08C0D194C194D108B3
:101580008DE22D830E945C042D81A601662757FD04
:101590006095762F29C07601F4E0EF0EF11CF6017C
:1015A000408151816281738177FF1EC07095609583
:1015B000509541955F4F6F4F7F4F8DE22D8349834B
:1015C0005A836B837C830E945C047C816B815A818B
:1015D00049812D8109C07601F4E0EF0EF11CF6017E
:1015E00040815181628173818AE014C07601F2E00A
:1015F000EF0EF11CF6014081518160E070E009C0FE
:101600007601F4E0EF0EF11CF60140815181628118
:10161000738180E10E94150532C07601F2E0EF0E81
:10162000F11CF601608171812F3F09F420E180E017
:1016300090E00CC07601F4E0EF0EF11CF601608141
:101640007181828193812F3F09F420E1422F0E9412
:10165000880415C07601F4E0EF0EF11CF6016081FC
:101660007181828193810E94970609C07601F2E020
:10167000EF0EF11CF601808191810E94C604670182
:1016800007C085E20E945C0403C00E945C048701DD
:101690007801FFEFEF1AFF0ABECE0F900F900F9068
:1016A0000F900F90DF91CF911F910F91FF90EF90CE
:1016B000DF90CF900895CF92DF92EF92FF926B016F
:1016C0007C01DC01CB0180569940A109B109813A26
:1016D000984BA140B10598F4A8EFBFEFA701960180
:1016E0000E940C0E7659874E9F4FE4E0220F331F65
:1016F000441F551FEA95D1F70E94E70D01C029E06C
:1017000029B910BCFF90EF90DF90CF90089528E1A9
:101710002AB926E820BD1BB80C945B0B5F9BFECF5B
:101720008CB108955D9BFECF8CB90895AF92BF92A6
:10173000CF92DF92EF92FF920F931F93CF93DF939D
:101740001F92CDB7DEB76B017C01AA24A394B12C04
:101750004423F1F00FEF040FC50102C0880F991F59
:101760000A95E2F78C01222717FD2095322F0C21D4
:101770001D212E213F2181E0012B022B032B09F497
:1017800080E0805D49830E94920B49814150E0CF07
:101790000F90DF91CF911F910F91FF90EF90DF900D
:1017A000CF90BF90AF900895CF93DF93EC018991D4
:1017B000882319F00E94920BFACFDF91CF91089500
:1017C000FF920F931F93CF93DF938C01C8EED3E06A
:1017D000F12C0E948E0B8D3029F4F801EF0DF11DD4
:1017E000108210C08A30C9F3883021F4FF2011F034
:1017F000FA9405C0F801EF0DF11D8083F394219751
:10180000209739F78F2DDF91CF911F910F91FF9086
:1018100008957F928F929F92AF92BF92CF92DF9264
:10182000EF92FF920F931F93CF93DF93CDB7DEB765
:101830002A970FB6F894DEBF0FBECDBF782ECB012E
:10184000BA01C22E22E0721216C04C2D2A960FB693
:10185000F894DEBF0FBECDBFDF91CF911F910F91E6
:10186000FF90EF90DF90CF90BF90AF909F908F90C0
:101870007F900C94960B611571058105910549F0D7
:10188000FE0131967F018F01872C912CA12CB12C68
:101890001DC010E01C15A1F11A3091F180E30E94E7
:1018A000920B1F5FF7CF611571058105910599F0C6
:1018B000D62EA50194010E94E70DCA01B901729EBE
:1018C000D0181124F801D0820F5F1F4FD02EDE18E0
:1018D000DC1448F310C0FAE0FC1568F0F80110823F
:1018E000F3CFFE01ED0DF11D80818A3038F0895C67
:1018F0000E94920BDA94D110F4CF02C0805DF8CF31
:101900002A960FB6F894DEBF0FBECDBFDF91CF9100
:101910001F910F91FF90EF90DF90CF90BF90AF900D
:101920009F908F907F9008958F929F92AF92BF92D9
:10193000CF92DF92EF92FF926B017C010E94FC0E2E
:101940004B015C012FEFAB01BC018AE00E94090C46
:101950008EE20E94920BC501B4010E94280F9B01E8
:10196000AC01C701B6010E942B0E20E034E244E72F
:1019700059E40E94DA0F0E94FC0EAB01BC012FEF6C
:101980008AE0FF90EF90DF90CF90BF90AF909F9054
:101990008F900C94090CCF92DF92EF92FF920F93ED
:1019A0001F93CF93DF9300D000D01F92CDB7DEB747
:1019B000FE017096E190F1906F01F701808188231C
:1019C00009F4F7C0853209F0ECC087010F5F1F4FA3
:1019D000F701818190ED980F9A3078F420E090ED36
:1019E000980F9A3058F4FAE02F9F900D1124292F68
:1019F0000F5F1F4FF8018081F2CF2FEF883509F478
:101A00008FC0C8F4843409F44CC058F4823409F40B
:101A1000A1C038F5853209F0C7C085E20E94920B5B
:101A2000C3C0833509F4B2C0853509F464C0863477
:101A300009F0BAC09FC0863609F49CC040F48336D2
:101A400081F08436B9F0823609F0AEC076C08537B1
:101A500009F447C0883709F459C0833709F0A4C096
:101A600095C07601F2E0EF0EF11CF60180810E9434
:101A7000920B95C07601F2E0EF0EF11CF601C080EA
:101A8000D180D7FE08C0D194C194D1088DE22D83B6
:101A90000E94920B2D81A601662757FD6095762F37
:101AA00033C07601F4E0EF0EF11CF6014081518164
:101AB0006281738177FF28C070956095509541953C
:101AC0005F4F6F4F7F4F8DE22D8349835A836B8326
:101AD0007C830E94920B7C816B815A8149812D818C
:101AE00013C07601F2E0EF0EF11CF6014081518146
:101AF00060E070E009C07601F4E0EF0EF11CF60141
:101B000040815181628173818AE014C07601F2E0E4
:101B1000EF0EF11CF6014081518160E070E009C0D8
:101B20007601F4E0EF0EF11CF601408151816281F3
:101B3000738180E10E94090C32C07601F2E0EF0E61
:101B4000F11CF601608171812F3F09F420E180E0F2
:101B500090E00CC07601F4E0EF0EF11CF60160811C
:101B60007181828193812F3F09F420E2422F0E94EC
:101B7000960B15C07601F4E0EF0EF11CF6016081C2
:101B80007181828193810E94940C09C07601F2E0F8
:101B9000EF0EF11CF601808191810E94D40B670148
:101BA00003C00E94920B87017801FFEFEF1AFF0A32
:101BB00004CF0F900F900F900F900F90DF91CF9167
:101BC0001F910F91FF90EF90DF90CF900895A1E2C9
:101BD0001A2EAA1BBB1BFD010DC0AA1FBB1FEE1FA7
:101BE000FF1FA217B307E407F50720F0A21BB30BF2
:101BF000E40BF50B661F771F881F991F1A9469F76E
:101C000060957095809590959B01AC01BD01CF01C9
:101C10000895B7FF0C94110E0E94110E821B930BB6
:101C200008950E941C0EA59F900DB49F900DA49F37
:101C3000800D911D11240895A29FB001B39FC00192
:101C4000A39F700D811D1124911DB29F700D811DE8
:101C50001124911D08955058BB27AA270ED070C19A
:101C600061D130F066D120F031F49F3F11F41EF4C1
:101C700056C10EF4E095E7FB4CC1E92F72D180F319
:101C8000BA17620773078407950718F071F49EF579
:101C90008AC10EF4E0950B2EBA2FA02D0B01B901CD
:101CA00090010C01CA01A0011124FF27591B99F0D2
:101CB000593F50F4503E68F11A16F040A22F232FDE
:101CC000342F4427585FF3CF469537952795A7952E
:101CD000F0405395C9F77EF41F16BA0B620B730BD5
:101CE000840BBAF09150A1F0FF0FBB1F661F771F46
:101CF000881FC2F70EC0BA0F621F731F841F48F4FB
:101D0000879577956795B795F7959E3F08F0B3CF80
:101D10009395880F08F09927EE0F9795879508956A
:101D2000D4D008F481E008950CD00AC102D140F06B
:101D3000F9D030F021F45F3F19F0EBC0511134C1FC
:101D4000EEC00FD198F39923C9F35523B1F3951B36
:101D5000550BBB27AA2762177307840738F09F5FCC
:101D60005F4F220F331F441FAA1FA9F333D00E2E3B
:101D70003AF0E0E830D091505040E695001CCAF7A8
:101D800029D0FE2F27D0660F771F881FBB1F26176D
:101D900037074807AB07B0E809F0BB0B802DBF0140
:101DA000FF2793585F4F2AF09E3F510568F0B1C05E
:101DB000FBC05F3FECF3983EDCF386957795679523
:101DC000B795F7959F5FC9F7880F911D96958795F1
:101DD00097F90895E1E0660F771F881FBB1F621710
:101DE00073078407BA0720F0621B730B840BBA0BCE
:101DF000EE1F88F7E0950895BCD088F09F5790F0CB
:101E0000B92F9927B751A0F0D1F0660F771F881F1F
:101E1000991F1AF0BA95C9F712C0B13081F0C3D03A
:101E2000B1E00895C0C0672F782F8827B85F39F0D8
:101E3000B93FCCF3869577956795B395D9F73EF47E
:101E400090958095709561957F4F8F4F9F4F089526
:101E5000E89409C097FB3EF4909580957095619544
:101E60007F4F8F4F9F4F9923A9F0F92F96E9BB27FA
:101E70009395F695879577956795B795F111F8CF76
:101E8000FAF4BB0F11F460FF1BC06F5F7F4F8F4FE1
:101E90009F4F16C0882311F096E911C0772321F0D7
:101EA0009EE8872F762F05C0662371F096E8862F6F
:101EB00070E060E02AF09A95660F771F881FDAF7C6
:101EC000880F9695879597F90895990F0008550FF3
:101ED000AA0BE0E8FEEF16161706E807F907C0F0B0
:101EE00012161306E407F50798F0621B730B840BB8
:101EF000950B39F40A2661F0232B242B252B21F492
:101F000008950A2609F4A140A6958FEF811D811D31
:101F1000089597F99F6780E870E060E008959FEF6B
:101F200080EC089500240A94161617061806090670
:101F3000089500240A94121613061406050608953F
:101F4000092E0394000C11F4882352F0BB0F40F4C7
:101F5000BF2B11F460FF04C06F5F7F4F8F4F9F4F07
:101F6000089557FD9058440F551F59F05F3F71F089
:101F70004795880F97FB991F61F09F3F79F08795F0
:101F80000895121613061406551FF2CF4695F1DF79
:101F900008C0161617061806991FF1CF8695710509
:101FA000610508940895E894BB2766277727CB013D
:101FB00097F908950BD0C4CFB5DF28F0BADF18F039
:101FC000952309F0A6CFABCF1124EECFCADFA0F343
:101FD000959FD1F3950F50E0551F629FF001729FBE
:101FE000BB27F00DB11D639FAA27F00DB11DAA1FDD
:101FF000649F6627B00DA11D661F829F2227B00D2A
:10200000A11D621F739FB00DA11D621F839FA00DB4
:10201000611D221F749F3327A00D611D231F849F04
:10202000600D211D822F762F6A2F11249F5750405B
:102030008AF0E1F088234AF0EE0FFF1FBB1F661FF6
:10204000771F881F91505040A9F79E3F510570F0AF
:1020500060CFAACF5F3FECF3983EDCF3869577958F
:102060006795B795F795E7959F5FC1F7FE2B880FAA
:0E207000911D9695879597F90895F894FFCFE6
:10207E0080C090D0404850586068707810181E1F6D
:10208E001F1E181001030F1F1F0F03011B1B1B1B0D
:10209E001B1B1B1B000000000000000000000000C6
:1020AE00000000000103071F1F0703010E1111118D
:1020BE001F1B1B1F0004040E1515110E25642F2562
:0220CE006400AC
:00000001FF
