:100000000C942A000C9447000C9447000C94470071
:100010000C9447000C9447000C9447000C94470044
:100020000C9447000C9447000C9447000C94470034
:100030000C9447000C9447000C9447000C94470024
:100040000C9447000C9447000C9447000C94470014
:100050000C94470011241FBECFE5D8E0DEBFCDBF12
:1000600010E0A0E6B0E0ECE7F0E202C005900D92EF
:10007000AA3BB107D9F720E0AAEBB0E001C01D927E
:10008000AA3EB207E1F70E94C2000C943C100C9407
:10009000000081B3806381BB0895CF93C82F70E0C7
:1000A00080E090E00E94290F23E333E343E250E431
:1000B0000E94D90F0E94FB0EC13031F0C23039F4DA
:1000C00070E079BD68BD03C070E07BBD6ABDCF91B3
:1000D00008958FB581608FBD8EB588608EBD8FB558
:1000E000806A8FBD8EB583608EBD1BBC1ABC19BCE7
:1000F00018BC089597B18770987F892B87B9369A75
:100100003699FECF84B195B108950E947A00BC0162
:1001100080E090E00E94270F29E134E64EE553E4A9
:100120000E94930E0895CF92DF92EF92FF92CF93A9
:10013000C42F20E030E048EC52E40E94D90F23E3C2
:1001400033E343E950E40E94930E6B017C016C2F72
:1001500070E080E090E00E94290F20E030E048EC61
:1001600052E40E94930E9B01AC01C701B6010E94AC
:10017000D90F0E94FB0ECB01CF91FF90EF90DF9043
:10018000CF90089586E18F9385E18F9384E1882E47
:1001900093E1A92ECC24CA94EE24EA940FEF2FEF1A
:1001A00042E161E180E10E944B0368E082E00E944D
:1001B000EB030E9449000E94690017BA8FEF88BBC9
:1001C00080E487B987E886B960E081E00E944D004D
:1001D00060E082E00E944D000F900F90C12CD12C66
:1001E0007601712C612CC0E0D0E0912C812C2CEA9E
:1001F000A22E20E0B22E02EB10E080E00E948500EB
:100200009B01AC01C701B6010E948F0E882329F122
:1002100080E00E9485006B017C0120E030E048EC2A
:1002200052E40E94D90F23E333E343E950E40E94F0
:10023000930E0E94FB0E562E762E672E4C2FC70172
:10024000B6010E949300982E892E682F81E00E94AB
:100250004D00652D82E00E944D00B29915C0C43654
:10026000D10508F421964C2FC701B6010E949300D6
:10027000982E892E682F81E00E944D008CE291E03B
:100280000E9480010E94E503B39914C0209709F0F1
:1002900021974C2FC701B6010E949300982E892EFA
:1002A000682F81E00E944D008CE291E00E94800165
:1002B0000E94E503DF93CF938F929F92BF92AF92FC
:1002C0001F921F921F921F920E94FC076F927F92B3
:1002D0001F930F931F9281E08F931F921F920E9492
:1002E000FC078DB79EB742960FB6F8949EBF0FBE1F
:1002F0008DBF83CF009719F000C00197FBCF089501
:10030000009741F0EFE8F1E03197F1F700C000000D
:100310000197F6CF0895E199FECF9FBB8EBB6DBBD1
:10032000E29AE19A0895E199FECF9FBB8EBBE09AD5
:100330008DB308950F931F93CF93DF93EB018C013F
:10034000061B170BCE01800F911F69910E948B0134
:10035000FE01319780818111F5CFDF91CF911F91FF
:100360000F9108950F931F93CF93DF93EB018C01AF
:10037000061B170BCE01800F911F0E9493018993DA
:100380008111F8CFDF91CF911F910F910895282F00
:1003900027708695869586958130B9F028F0823051
:1003A00029F18330A1F108953AB381E090E0022E63
:1003B00001C0880F0A94EAF7662319F0382B3ABB7C
:1003C0000895809583238ABB089537B381E090E038
:1003D000022E01C0880F0A94EAF7662319F0382B21
:1003E00037BB08958095832387BB089534B381E09C
:1003F00090E0022E01C0880F0A94EAF7662319F0F4
:10040000382B34BB08958095832384BB089531B382
:1004100081E090E0022E01C0880F0A94EAF766237B
:1004200019F0382B31BB08958095832381BB089543
:10043000282F27708695869586958130B9F028F00B
:10044000823029F18330A1F108953BB381E090E03F
:10045000022E01C0880F0A94EAF7662319F0382BA0
:100460003BBB0895809583238BBB089538B381E00F
:1004700090E0022E01C0880F0A94EAF7662319F073
:10048000382B38BB08958095832388BB089535B3F6
:1004900081E090E0022E01C0880F0A94EAF76623FB
:1004A00019F0382B35BB08958095832385BB0895BB
:1004B00032B381E090E0022E01C0880F0A94EAF77F
:1004C000662319F0382B32BB08958095832382BBB5
:1004D0000895282F2770869586958695813049F056
:1004E00030F0823041F0833079F480B305C089B3B5
:1004F00003C086B301C083B390E002C09595879591
:100500002A95E2F78170089580E00895CF93C82F6F
:1005100084FB662760F98091E4000E941802C5FB05
:10052000662760F98091E5000E941802C6FB6627E5
:1005300060F98091E6000E9418026C2F661F662702
:10054000661F8091E700CF910C941802CF93DF9340
:1005500060E08091DD000E94180260E08091DE0082
:100560000E941802CFEDD0E061E088810E9418025D
:100570008AE090E00E947A0160E08881DF91CF916B
:100580000C941802CF93C82F682F61708091E000FF
:100590000E941802C1FB662760F98091E1000E9469
:1005A0001802C2FB662760F98091E2000E941802DF
:1005B000C3FB662760F98091E300CF910C94180289
:1005C000CF93DF9361E08091DD000E94180260E02C
:1005D0008091DE000E941802CFEDD0E061E08881BA
:1005E0000E9418028AE090E00E947A0160E088810F
:1005F000DF91CF910C941802CF938091DE008F3F52
:1006000009F444C060E08091E7000E94C70160E007
:100610008091DD000E94180261E08091DE000E945E
:10062000180260E08091DF000E9418028AE090E0EA
:100630000E947A0161E08091DF000E9418028AE046
:1006400090E00E947A018091E7000E946902C82F21
:100650008091DC00843091F460E08091DF000E94A2
:1006600018028AE090E00E947A0161E08091DF0048
:100670000E9418028AE090E00E947A01C111D1CF55
:1006800061E08091E700CF910C94C70181E090E098
:10069000CF910C9480018F929F92AF92BF92CF9294
:1006A000DF92EF92FF920F931F93CF93DF93CDB71B
:1006B000DEB7D82E162FF42E9F84B8888093DD00E5
:1006C0006093DE004093DF002093E0000093E100A0
:1006D000E092E200C092E300A092E4008092E50084
:1006E0009092E600B092E7002F3F39F00F3F29F0DB
:1006F0008FEFE81611F0C81204C084E08093DC008C
:1007000013C088E08093DC0061E0822F0E94C70163
:1007100061E0802F0E94C70161E08E2D0E94C70119
:1007200061E08C2D0E94C70161E08D2D0E94C70100
:1007300061E0812F0E94C70161E08F2D0E94C701F7
:1007400061E08A2D0E94C70161E0882D0E94C701E7
:1007500061E0892D0E94C70161E08B2DDF91CF916F
:100760001F910F91FF90EF90DF90CF90BF90AF90CF
:100770009F908F900C94C701CF93C82F0E94FC02CA
:100780008091DC00883021F48C2F0E94C20207C0C7
:100790008C2F0E9486020E94A602C295C07F8C2FD9
:1007A0000E948602CF910C94A6029091DA008917DC
:1007B00058F41092E8008093E900E82FF0E0E05A46
:1007C000FF4F80810C94BC03089581E00E94BC031C
:1007D00080E00C94D5036093DB008093DA008330D3
:1007E00040F06F7080E9860F8093620060536093E1
:1007F000630084E690E00E9480018091DC008830F4
:1008000011F488E327C0843039F580E30E94860222
:100810000E94A60284E690E00E94800180E30E948C
:1008200086020E94A60288EC90E00E947A0180E392
:100830000E9486020E94A60288EC90E00E947A0143
:1008400080E20E9486020E94A60288EC90E00E944C
:100850007A0188E20E94BC038EE00E94BC030C94E3
:10086000E5038091E9008F5F8093E9001092E80032
:100870009091DA00891710F01092E900E091E900F8
:10088000F0E0E05AFF4F80810C94BC039091DA00B5
:10089000891780F49091DB00691760F46093E80099
:1008A0008093E900E82FF0E0E05AFF4F8081860F47
:1008B0000C94BC030895CF93C82F9091E8008091C9
:1008C000DB00981760F4CA3051F00E94FC0280915E
:1008D000DC00883049F48C2F0E94C2020CC00E94B8
:1008E0003104CA3091F0F1CF8C2F0E9486020E9411
:1008F000E002C295C07F8C2F0E9486020E94E00217
:100900008091E8008F5F8093E800CF910895AF92C7
:10091000BF92CF92DF92EF92FF920F931F93CF93EC
:10092000DF931F92CDB7DEB76B017C01AA24A3949D
:10093000B12C4423F1F00FEF040FC50102C0880F62
:10094000991F0A95E2F78C01222717FD2095322F77
:100950000C211D212E213F2181E0012B022B032B95
:1009600009F480E0805D49830E945B044981415025
:10097000E0CF0F90DF91CF911F910F91FF90EF90FB
:10098000DF90CF90BF90AF900895CF93DF93EC01AD
:100990008991882319F00E945B04FACFDF91CF91EF
:1009A0000895DF92EF92FF920F931F93CF93DF93FF
:1009B000D82E8B018091DA00D81608F0D12C8CE06B
:1009C0000E94BC03E12CE801CE0DD11D8881882353
:1009D00009F18D2D0E94D503F12C8091DB00F816D2
:1009E00050F4FE01EF0DF11D8081882321F00E945B
:1009F0005B04F394F2CF8091DB00F81628F480E2D8
:100A00000E945B04F394F7CF88EC90E00E94800191
:100A1000E394D9CF8EE0DF91CF911F910F91FF909A
:100A2000EF90DF900C94BC037F928F929F92AF92D5
:100A3000BF92CF92DF92EF92FF920F931F93CF93CB
:100A4000DF93CDB7DEB72A970FB6F894DEBF0FBE9F
:100A5000CDBF782ECB01BA01C22E22E0721216C091
:100A60004C2D2A960FB6F894DEBF0FBECDBFDF9196
:100A7000CF911F910F91FF90EF90DF90CF90BF909B
:100A8000AF909F908F907F900C94870461157105B3
:100A90008105910549F0FE0131967F018F01872C78
:100AA000912CA12CB12C29C080E32A960FB6F89482
:100AB000DEBF0FBECDBFDF91CF911F910F91FF9091
:100AC000EF90DF90CF90BF90AF909F908F907F90EE
:100AD0000C945B04611571058105910599F0D62E82
:100AE000A50194010E94E60DCA01B901729ED018B9
:100AF0001124F801D0820F5F1F4FD02EDE18DC14B6
:100B000048F310C0FAE0FC1568F0F8011082F3CF4A
:100B1000FE01ED0DF11D80818A3038F0895C0E9464
:100B20005B04DA94D110F4CF02C0805DF8CF2A962E
:100B30000FB6F894DEBF0FBECDBFDF91CF911F91EE
:100B40000F91FF90EF90DF90CF90BF90AF909F906C
:100B50008F907F9008952F923F925F926F927F9235
:100B60008F929F92AF92BF92CF92DF92EF92FF92BD
:100B70000F931F93CF93DF93CDB7DEB72E970FB6AA
:100B8000F894DEBF0FBECDBF682E722E470122E063
:100B9000821341C0EE24E394F12CA4E0880C991C4C
:100BA000AA95E1F7772009F4A9C08FEF870DD70147
:100BB00002C0AA0FBB1F8A95E2F7CD01AA2797FDB5
:100BC000A095BA2F84239523A623B72321E0892B50
:100BD0008A2B8B2B09F420E0E0E3DE2ED20E8D2D44
:100BE0004B875C876D877E870E945B04D801ED91FF
:100BF000FC911197E80DF91DE654FF4FD0828D91BD
:100C00009C91119701968D939C937A947E856D8526
:100C10005C854B85C7CF411551056105710509F408
:100C200054C0FE0131961F015F01C82ED12CE12C6A
:100C3000F12C5A2C52185714B8F44115510561057E
:100C4000710579F0542ECB01BA01A70196010E94DB
:100C5000E60DBA01A901649E50181124D5015C92D9
:100C60000BC0BAE0B71530F434E0880C991C3A9503
:100C7000E1F724C0F5011082FFEFAF1ABF0AD9CF08
:100C8000FE01E50DF11D90819A30D8F087E3890FC0
:100C90009B870E945B04D801ED91FC919B859A3063
:100CA00090F0995CE80DF91DE654FF4F9083F80130
:100CB000808191810196918380835A945110E0CF75
:100CC0001DC080E3E4CF905DEDCF80E30E945B0424
:100CD000D8018D919C911197F70124E0EE0FFF1F31
:100CE0002A95E1F7E80FF91FE654FF4F80E3808370
:100CF0008D919C91119701968D939C932E960FB692
:100D0000F894DEBF0FBECDBFDF91CF911F910F9141
:100D1000FF90EF90DF90CF90BF90AF909F908F901B
:100D20007F906F905F903F902F9008958F929F9249
:100D3000AF92BF92CF92DF92EF92FF926B017C0154
:100D40000E94FB0E4B015C012FEFAB01BC018AE05E
:100D50000E9414058EE20E945B04C501B4010E944A
:100D6000270F9B01AC01C701B6010E942A0E20E0AB
:100D700034E244E759E40E94D90F0E94FB0EAB0114
:100D8000BC012FEF8AE0FF90EF90DF90CF90BF90F3
:100D9000AF909F908F900C941405CF93C82F0E9412
:100DA000FC028091DC00883021F48C2F0E94C2026A
:100DB00007C08C2F0E9486020E94E002C295C07F6D
:100DC0008C2F0E948602CF910C94E002AF92BF92CA
:100DD000CF92DF92EF92FF920F931F93CF93DF9307
:100DE000CDB7DEB7C854D1090FB6F894DEBF0FBE39
:100DF000CDBF88E0E4E6F0E0DE01AF5BBF4F0190DD
:100E00000D928A95E1F780E4ECE6F0E0DE011196C0
:100E100001900D928A95E1F78E010F5B1F4FCE0175
:100E200001966C01580198E0A90EB11CF80181915E
:100E30008F010E94BC03E12CF12CF601EE0DFF1D89
:100E400080810E94CD06FFEFEF1AFF0A88E0E816C6
:100E5000F10499F798E0C90ED11C0A151B0531F76A
:100E6000C85BDF4F0FB6F894DEBF0FBECDBFDF917A
:100E7000CF911F910F91FF90EF90DF90CF90BF9097
:100E8000AF9008958130910511F480E021C0823047
:100E9000910511F481E01CC08330910511F482E0CA
:100EA00017C08430910511F483E012C0853091059C
:100EB00011F484E00DC08630910511F485E008C07E
:100EC0008730910511F486E003C0089719F487E094
:100ED0000C94CD0608958FEF0C94CD068FE70C94FB
:100EE000CD068EE70C94CD0685EA0C94CD06DF92F4
:100EF000EF92FF920F931F93CF93DF93FC01EB01CF
:100F00008A01B4E0000F111FBA95E1F7D080DD200F
:100F100009F46AC085E27F01D81252C082E0E80E6F
:100F2000F11CD1808EE3D816B1F18D15C8F08EE298
:100F3000D81609F442C08D1540F085E2D81649F163
:100F40008CE2D8124FC085E029C08BE3D81669F136
:100F50008CE3D81611F18AE3D81244C086E01EC093
:100F60008DE5D81639F18D1548F08FE3D816F9F0D4
:100F70008BE5D81237C00E946E0728C08CE7D816C0
:100F800081F08DE7D81679F08BE7D8122BC083E07B
:100F900005C085E219C080E001C081E00E94CD0655
:100FA00015C082E0FBCF84E0F9CF87E0F7CF0E9445
:100FB0006B070CC00E94710709C00E94740706C02D
:100FC0008FEFE81AF80A8D2D0E945B04E881F98101
:100FD000E00FF11FE654FF4FD0828881998101967E
:100FE00099838883F70192CFDF91CF911F910F9161
:100FF000FF90EF90DF9008956F927F928F929F9273
:10100000AF92BF92CF92DF92EF92FF920F931F9316
:10101000CF93DF93CDB7DEB727970FB6F894DEBF37
:101020000FBECDBF188D098DAA8CBB8C6C8C7D8CAE
:10103000612F8A2D0E94460419830A838E01025E65
:101040001F4F650184E0CC0CDD1C8A95E1F7F301AC
:101050009080992009F493C185E298127BC14301E5
:101060009FEF891A990AF301918180ED890F8A30E7
:1010700080F420E080ED890F8A3060F4FAE02F9F41
:10108000800D1124282F8FEF881A980AF40190817F
:10109000F1CF2FEF953509F4E7C080F59E3309F4C1
:1010A00065C0B8F49E3209F476C040F4953209F474
:1010B0003FC19C3209F05EC185E05BC09B3309F4FF
:1010C00060C09C3309F454C09A3309F053C186E0E0
:1010D00050C0933409F463C038F49F3309F453C00B
:1010E000923409F4F6C046C1963409F406C193352A
:1010F00009F40FC1943409F48BC03CC1963609F44D
:10110000FCC0B8F49D3509F442C050F4983509F498
:10111000C4C09B3509F02EC19B830E946E070CC191
:101120009336E9F1943609F450C0923609F022C1A1
:10113000C3C0983709F4A7C080F4933709F4E9C015
:10114000953709F017C13801F2E06F0E711CF801F4
:101150004081518160E070E090C09C3771F09D3714
:1011600071F09B3709F006C183E003C080E001C045
:1011700081E09B830E94CD06DFC082E0FACF84E04D
:10118000F8CF87E0F6CF9B830E946B07D5C09B8387
:101190000E947107D1C09B830E947407CDC03801A3
:1011A000F2E06F0E711CF8011081812F0E945B0428
:1011B00029813A81F601E20FF31FE654FF4F1083B5
:1011C0002F5F3F4F3A832983B1C03801F2E06F0EA1
:1011D000711CF8010081118117FF14C01195019550
:1011E00011098DE22F830E945B0489819A81F601A7
:1011F000E80FF91FE654FF4F3DE2308301969A83D2
:1012000089832F81A801662757FD6095762F35C009
:101210003801F4E06F0E711CF80140815181628148
:10122000738177FF2AC070956095509541955F4F07
:101230006F4F7F4F8DE22F834B835C836D837E8363
:101240000E945B0489819A81F601E80FF91FE65438
:10125000FF4F3DE2308301969A8389837E816D81C1
:101260005C814B812F8109C03801F4E06F0E711C45
:10127000F801408151816281738175018E010F5F98
:101280001F4F8AE037C03801F2E06F0E711CF80181
:101290004081518160E070E009C03801F4E06F0ED8
:1012A000711CF801408151816281738175018E0149
:1012B0000F5F1F4F80E11EC03801F2E06F0E711CFE
:1012C000F801408151812F3F09F420E160E070E096
:1012D0000CC03801F4E06F0E711CF801408151819F
:1012E000628173812F3F09F420E175018E010F5F48
:1012F0001F4F82E00E94AB0519C03801F4E06F0E69
:10130000711CF80160817181828193810E9496062F
:101310000DC03801F2E06F0E711CA501BE016F5FB8
:101320007F4FF801808191810E947707830122C05D
:1013300085E29B830E945B0429813A81F601E20FDA
:10134000F31FE654FF4F9B8190832F5F3F4F3A83FB
:10135000298310C0892D0E945B0429813A81F601FE
:10136000E20FF31FE654FF4F90822F5F3F4F3A8307
:10137000298343013401FFEF6F1A7F0A68CE279655
:101380000FB6F894DEBF0FBECDBFDF91CF911F9196
:101390000F91FF90EF90DF90CF90BF90AF909F9014
:1013A0008F907F906F900895FC01828193818617C2
:1013B0009707ECF08AEB90E09F938F931F921F9218
:1013C0001F921F920E94FC078AEC90E09F938F93DC
:1013D0001F921F921F9281E08F930E94FC078DB78E
:1013E0009EB70C960FB6F8949EBF0FBE8DBF0895A2
:1013F000CF92DF92EF92FF920F931F93CF93DF93E1
:1014000000D000D01F92CDB7DEB7FE017096E190FC
:10141000F1906F01F7018081882309F43DC1853285
:1014200009F032C187010F5F1F4FF701818190EDF5
:10143000980F9A3078F420E090ED980F9A3058F495
:10144000FAE02F9F900D1124292F0F5F1F4FF801F5
:101450008081F2CF2FEF853509F4BCC080F58E3343
:1014600009F463C0B8F48E3209F471C040F48532D7
:1014700009F406C18C3209F00AC185E05FC08B33E4
:1014800009F45BC08C3309F452C08A3309F0FFC001
:1014900086E054C0833409F45DC038F48F3309F416
:1014A00050C0823409F4C5C0F2C0863409F4D1C0FA
:1014B000833509F4DAC0843409F46CC0E8C0863698
:1014C00009F4C7C0A8F48D35F9F148F4883509F45A
:1014D00096C08B3509F0DBC00E946E07D8C08336FA
:1014E000C9F1843609F43FC0823609F0D0C094C0F7
:1014F000883709F47AC080F4833709F4B6C0853799
:1015000009F0C5C07601F2E0EF0EF11CF601408152
:10151000518160E070E067C08C3759F08D3759F029
:101520008B3709F0B4C083E009C080E007C081E0D8
:1015300005C082E003C084E001C087E00E94CD06C0
:10154000A6C00E946B07A3C00E947107A0C00E94A2
:1015500074079DC07601F2E0EF0EF11CF601808168
:101560000E945B048BC07601F2E0EF0EF11CF601E5
:10157000C080D180D7FE08C0D194C194D1088DE23B
:101580002D830E945B042D81A601662757FD60957F
:10159000762F29C07601F4E0EF0EF11CF6014081B0
:1015A00051816281738177FF1EC07095609550955F
:1015B00041955F4F6F4F7F4F8DE22D8349835A8353
:1015C0006B837C830E945B047C816B815A8149819F
:1015D0002D8109C07601F4E0EF0EF11CF601408187
:1015E0005181628173818AE014C07601F2E0EF0ECE
:1015F000F11CF6014081518160E070E009C0760184
:10160000F4E0EF0EF11CF60140815181628173819B
:1016100080E10E94140532C07601F2E0EF0EF11C69
:10162000F601608171812F3F09F420E180E090E0B4
:101630000CC07601F4E0EF0EF11CF60160817181BF
:10164000828193812F3F09F420E1422F0E94870479
:1016500015C07601F4E0EF0EF11CF6016081718196
:10166000828193810E94960609C07601F2E0EF0E16
:10167000F11CF601808191810E94C504670107C0B9
:1016800085E20E945B0403C00E945B04870178012D
:10169000FFEFEF1AFF0ABECE0F900F900F900F9042
:1016A0000F90DF91CF911F910F91FF90EF90DF90FE
:1016B000CF900895CF92DF92EF92FF926B017C0161
:1016C000DC01CB0180569940A109B109813A984BC0
:1016D000A140B10598F4A8EFBFEFA70196010E94C1
:1016E0000B0E7659874E9F4FE4E0220F331F441FA5
:1016F000551FEA95D1F70E94E60D01C029E029B9EE
:1017000010BCFF90EF90DF90CF90089528E12AB9A8
:1017100026E820BD1BB80C945A0B5F9BFECF8CB102
:1017200008955D9BFECF8CB90895AF92BF92CF9282
:10173000DF92EF92FF920F931F93CF93DF931F924D
:10174000CDB7DEB76B017C01AA24A394B12C44234E
:10175000F1F00FEF040FC50102C0880F991F0A9521
:10176000E2F78C01222717FD2095322F0C211D2135
:101770002E213F2181E0012B022B032B09F480E075
:10178000805D49830E94910B49814150E0CF0F90C9
:10179000DF91CF911F910F91FF90EF90DF90CF904D
:1017A000BF90AF900895CF93DF93EC018991882388
:1017B00019F00E94910BFACFDF91CF910895FF921B
:1017C0000F931F93CF93DF938C01C8EED3E0F12CDE
:1017D0000E948D0B8D3029F4F801EF0DF11D108260
:1017E00010C08A30C9F3883021F4FF2011F0FA9438
:1017F00005C0F801EF0DF11D8083F3942197209728
:1018000039F78F2DDF91CF911F910F91FF900895A0
:101810007F928F929F92AF92BF92CF92DF92EF9280
:10182000FF920F931F93CF93DF93CDB7DEB72A9725
:101830000FB6F894DEBF0FBECDBF782ECB01BA0134
:10184000C22E22E0721216C04C2D2A960FB6F894C2
:10185000DEBF0FBECDBFDF91CF911F910F91FF90E3
:10186000EF90DF90CF90BF90AF909F908F907F9040
:101870000C94950B611571058105910549F0FE01E8
:1018800031967F018F01872C912CA12CB12C1DC08A
:1018900010E01C15A1F11A3091F180E30E94910B28
:1018A0001F5FF7CF611571058105910599F0D62E5F
:1018B000A50194010E94E60DCA01B901729ED018DB
:1018C0001124F801D0820F5F1F4FD02EDE18DC14D8
:1018D00048F310C0FAE0FC1568F0F8011082F3CF6D
:1018E000FE01ED0DF11D80818A3038F0895C0E9487
:1018F000910BDA94D110F4CF02C0805DF8CF2A9614
:101900000FB6F894DEBF0FBECDBFDF91CF911F9110
:101910000F91FF90EF90DF90CF90BF90AF909F908E
:101920008F907F9008958F929F92AF92BF92CF92A7
:10193000DF92EF92FF926B017C010E94FB0E4B0144
:101940005C012FEFAB01BC018AE00E94080C8EE223
:101950000E94910BC501B4010E94270F9B01AC01AD
:10196000C701B6010E942A0E20E034E244E759E4A0
:101970000E94D90F0E94FB0EAB01BC012FEF8AE041
:10198000FF90EF90DF90CF90BF90AF909F908F909F
:101990000C94080CCF92DF92EF92FF920F931F935B
:1019A000CF93DF9300D000D01F92CDB7DEB7FE01FA
:1019B0007096E190F1906F01F7018081882309F41E
:1019C000F7C0853209F0ECC087010F5F1F4FF701A8
:1019D000818190ED980F9A3078F420E090ED980F87
:1019E0009A3058F4FAE02F9F900D1124292F0F5FA1
:1019F0001F4FF8018081F2CF2FEF883509F48FC097
:101A0000C8F4843409F44CC058F4823409F4A1C0F9
:101A100038F5853209F0C7C085E20E94910BC3C03A
:101A2000833509F4B2C0853509F464C0863409F001
:101A3000BAC09FC0863609F49CC040F4833681F05A
:101A40008436B9F0823609F0AEC076C0853709F425
:101A500047C0883709F459C0833709F0A4C095C03E
:101A60007601F2E0EF0EF11CF60180810E94910BED
:101A700095C07601F2E0EF0EF11CF601C080D18036
:101A8000D7FE08C0D194C194D1088DE22D830E9465
:101A9000910B2D81A601662757FD6095762F33C0E7
:101AA0007601F4E0EF0EF11CF60140815181628174
:101AB000738177FF28C070956095509541955F4F71
:101AC0006F4F7F4F8DE22D8349835A836B837C83D5
:101AD0000E94910B7C816B815A8149812D8113C0B9
:101AE0007601F2E0EF0EF11CF6014081518160E0D9
:101AF00070E009C07601F4E0EF0EF11CF6014081C0
:101B00005181628173818AE014C07601F2E0EF0EA8
:101B1000F11CF6014081518160E070E009C076015E
:101B2000F4E0EF0EF11CF601408151816281738176
:101B300080E10E94080C32C07601F2E0EF0EF11C49
:101B4000F601608171812F3F09F420E180E090E08F
:101B50000CC07601F4E0EF0EF11CF601608171819A
:101B6000828193812F3F09F420E2422F0E94950B3E
:101B700015C07601F4E0EF0EF11CF6016081718171
:101B8000828193810E94930C09C07601F2E0EF0EEE
:101B9000F11CF601808191810E94D30B670103C083
:101BA0000E94910B87017801FFEFEF1AFF0A04CF23
:101BB0000F900F900F900F900F90DF91CF911F918A
:101BC0000F91FF90EF90DF90CF900895A1E21A2E31
:101BD000AA1BBB1BFD010DC0AA1FBB1FEE1FFF1FD1
:101BE000A217B307E407F50720F0A21BB30BE40B21
:101BF000F50B661F771F881F991F1A9469F7609568
:101C00007095809590959B01AC01BD01CF01089521
:101C1000B7FF0C94100E0E94100E821B930B0895B8
:101C20000E941B0EA59F900DB49F900DA49F800D48
:101C3000911D11240895A29FB001B39FC001A39FDD
:101C4000700D811D1124911DB29F700D811D1124F5
:101C5000911D08955058BB27AA270ED070C161D19D
:101C600030F066D120F031F49F3F11F41EF456C1DC
:101C70000EF4E095E7FB4CC1E92F72D180F3BA175F
:101C8000620773078407950718F071F49EF58AC1FF
:101C90000EF4E0950B2EBA2FA02D0B01B901900187
:101CA0000C01CA01A0011124FF27591B99F0593FCB
:101CB00050F4503E68F11A16F040A22F232F342F13
:101CC0004427585FF3CF469537952795A795F04061
:101CD0005395C9F77EF41F16BA0B620B730B840B76
:101CE000BAF09150A1F0FF0FBB1F661F771F881F2E
:101CF000C2F70EC0BA0F621F731F841F48F4879586
:101D000077956795B795F7959E3F08F0B3CF939574
:101D1000880F08F09927EE0F979587950895D4D0EE
:101D200008F481E008950CD00AC102D140F0F9D046
:101D300030F021F45F3F19F0EBC0511134C1EEC017
:101D40000FD198F39923C9F35523B1F3951B550B84
:101D5000BB27AA2762177307840738F09F5F5F4F7E
:101D6000220F331F441FAA1FA9F333D00E2E3AF0BF
:101D7000E0E830D091505040E695001CCAF729D0D9
:101D8000FE2F27D0660F771F881FBB1F2617370728
:101D90004807AB07B0E809F0BB0B802DBF01FF2758
:101DA00093585F4F2AF09E3F510568F0B1C0FBC0C9
:101DB0005F3FECF3983EDCF3869577956795B79592
:101DC000F7959F5FC9F7880F911D9695879597F9AD
:101DD0000895E1E0660F771F881FBB1F6217730726
:101DE0008407BA0720F0621B730B840BBA0BEE1F3B
:101DF00088F7E0950895BCD088F09F5790F0B92FF0
:101E00009927B751A0F0D1F0660F771F881F991F4F
:101E10001AF0BA95C9F712C0B13081F0C3D0B1E061
:101E20000895C0C0672F782F8827B85F39F0B93F71
:101E3000CCF3869577956795B395D9F73EF4909551
:101E40008095709561957F4F8F4F9F4F0895E894CF
:101E500009C097FB3EF490958095709561957F4FF2
:101E60008F4F9F4F9923A9F0F92F96E9BB279395A0
:101E7000F695879577956795B795F111F8CFFAF4B0
:101E8000BB0F11F460FF1BC06F5F7F4F8F4F9F4FE1
:101E900016C0882311F096E911C0772321F09EE83F
:101EA000872F762F05C0662371F096E8862F70E0A5
:101EB00060E02AF09A95660F771F881FDAF7880F7F
:101EC0009695879597F90895990F0008550FAA0BD5
:101ED000E0E8FEEF16161706E807F907C0F012163D
:101EE0001306E407F50798F0621B730B840B950B40
:101EF00039F40A2661F0232B242B252B21F4089595
:101F00000A2609F4A140A6958FEF811D811D089531
:101F100097F99F6780E870E060E008959FEF80EC9C
:101F2000089500240A94161617061806090608953F
:101F300000240A9412161306140605060895092EA5
:101F40000394000C11F4882352F0BB0F40F4BF2B14
:101F500011F460FF04C06F5F7F4F8F4F9F4F089554
:101F600057FD9058440F551F59F05F3F71F047954A
:101F7000880F97FB991F61F09F3F79F0879508952F
:101F8000121613061406551FF2CF4695F1DF08C04E
:101F9000161617061806991FF1CF8695710561056B
:101FA00008940895E894BB2766277727CB0197F913
:101FB00008950BD0C4CFB5DF28F0BADF18F0952311
:101FC00009F0A6CFABCF1124EECFCADFA0F3959FC7
:101FD000D1F3950F50E0551F629FF001729FBB2710
:101FE000F00DB11D639FAA27F00DB11DAA1F649FBC
:101FF0006627B00DA11D661F829F2227B00DA11D6F
:10200000621F739FB00DA11D621F839FA00D611DF4
:10201000221F749F3327A00D611D231F849F600D15
:10202000211D822F762F6A2F11249F5750408AF04E
:10203000E1F088234AF0EE0FFF1FBB1F661F771FDA
:10204000881F91505040A9F79E3F510570F060CF16
:10205000AACF5F3FECF3983EDCF3869577956795C2
:10206000B795F795E7959F5FC1F7FE2B880F911DF8
:0C2070009695879597F90895F894FFCF96
:10207C0080C090D0404850586068707810181E1F6F
:10208C001F1E181001030F1F1F0F03011B1B1B1B0F
:10209C001B1B1B1B000000000000000000000000C8
:1020AC00000000000103071F1F0703010E1111118F
:1020BC001F1B1B1F0004040E1515110E25642F2564
:0A20CC006400494E3A20256400002C
:00000001FF
