:100000000C942A000C9447000C9447000C94470071
:100010000C9447000C9447000C9447000C94470044
:100020000C9447000C9447000C9447000C94470034
:100030000C9447000C9447000C9447000C94470024
:100040000C9447000C9447000C9447000C94470014
:100050000C94470011241FBECFE5D8E0DEBFCDBF12
:1000600010E0A0E6B0E0E4E7FDE102C005900D92EB
:10007000A03BB107D9F720E0A0EBB0E001C01D9292
:10008000A03EB207E1F70E947A000C94B80E0C94DF
:10009000000081B3806381BB0895CF93C82F70E0C7
:1000A00080E090E00E94C90D23E333E343E250E493
:1000B0000E94550E0E949B0DC13031F0C23039F4C0
:1000C00070E079BD68BD03C070E07BBD6ABDCF91B3
:1000D00008958FB581608FBD8EB588608EBD8FB558
:1000E000806A8FBD8EB583608EBD1BBC1ABC19BCE7
:1000F00018BC089586E08F9385E08F9384E0882E66
:1001000093E0A92ECC24CA94EE24EA940FEF2FEFAB
:1001100042E061E080E00E94B70260E181E00E947D
:1001200057030E9449000E94690017BA8FEF88BBED
:1001300060E081E00E944D0064E682E00E944D0094
:100140000F900F90C0E0D0E00CEA10E024E6E22E21
:1001500034E0F32EB2990EC0C436D1050CF42196CA
:100160006C2F81E00E944D008CE291E00E94EC0037
:100170000E945103B3990DC0209709F021976C2F6D
:1001800081E00E944D008CE291E00E94EC000E9410
:100190005103DF93CF931F930F931F921F921F92D0
:1001A0001F920E9431071F92EF921F930F931F928D
:1001B0001F921F92FF920E9431078DB79EB7409603
:1001C0000FB6F8949EBF0FBE8DBFC4CF009719F035
:1001D00000C00197FBCF0895009741F0EFE8F1E0F0
:1001E0003197F1F700C000000197F6CF0895E1992B
:1001F000FECF9FBB8EBB6DBBE29AE19A0895E19959
:10020000FECF9FBB8EBBE09A8DB308950F931F93D3
:10021000CF93DF93EB018C01061B170BCE01800FF0
:10022000911F69910E94F700FE0131978081811131
:10023000F5CFDF91CF911F910F9108950F931F93E9
:10024000CF93DF93EB018C01061B170BCE01800FC0
:10025000911F0E94FF0089938111F8CFDF91CF9108
:100260001F910F910895282F277086958695869562
:100270008130B9F028F0823029F18330A1F108955E
:100280003AB381E090E0022E01C0880F0A94EAF7A9
:10029000662319F0382B3ABB0895809583238ABBD7
:1002A000089537B381E090E0022E01C0880F0A94D0
:1002B000EAF7662319F0382B37BB0895809583231E
:1002C00087BB089534B381E090E0022E01C0880F0F
:1002D0000A94EAF7662319F0382B34BB0895809509
:1002E000832384BB089531B381E090E0022E01C0E6
:1002F000880F0A94EAF7662319F0382B31BB08956A
:100300008095832381BB0895282F27708695869535
:1003100086958130B9F028F0823029F18330A1F13F
:1003200008953BB381E090E0022E01C0880F0A944B
:10033000EAF7662319F0382B3BBB08958095832399
:100340008BBB089538B381E090E0022E01C0880F86
:100350000A94EAF7662319F0382B38BB0895809584
:10036000832388BB089535B381E090E0022E01C05D
:10037000880F0A94EAF7662319F0382B35BB0895E5
:100380008095832385BB089532B381E090E0022EEF
:1003900001C0880F0A94EAF7662319F0382B32BBA4
:1003A00008958095832382BB0895282F2770869512
:1003B00086958695813049F030F0823041F0833067
:1003C00079F480B305C089B303C086B301C083B399
:1003D00090E002C0959587952A95E2F7817008957F
:1003E00080E00895CF93C82F84FB662760F9809141
:1003F000DA000E948401C5FB662760F98091DB006A
:100400000E948401C6FB662760F98091DC000E948F
:1004100084016C2F661F6627661F8091DD00CF91D7
:100420000C948401CF93DF9360E08091D3000E940D
:10043000840160E08091D4000E948401C5EDD0E089
:1004400061E088810E9484018AE090E00E94E600D9
:1004500060E08881DF91CF910C948401CF93C82F05
:10046000682F61708091D6000E948401C1FB6627CD
:1004700060F98091D7000E948401C2FB662760F971
:100480008091D8000E948401C3FB662760F98091A7
:10049000D900CF910C948401CF93DF9361E08091D8
:1004A000D3000E94840160E08091D4000E94840106
:1004B000C5EDD0E061E088810E9484018AE090E08F
:1004C0000E94E60060E08881DF91CF910C94840166
:1004D000CF938091D4008F3F09F444C060E08091B5
:1004E000DD000E94330160E08091D3000E9484010E
:1004F00061E08091D4000E94840160E08091D50089
:100500000E9484018AE090E00E94E60061E0809110
:10051000D5000E9484018AE090E00E94E60080916C
:10052000DD000E94D501C82F8091D200843091F463
:1005300060E08091D5000E9484018AE090E00E94F2
:10054000E60061E08091D5000E9484018AE090E09D
:100550000E94E600C111D1CF61E08091DD00CF9112
:100560000C94330181E090E0CF910C94EC008F92D9
:100570009F92AF92BF92CF92DF92EF92FF920F9332
:100580001F93CF93DF93CDB7DEB7D82E162FF42E5F
:100590009F84B8888093D3006093D4004093D500A3
:1005A0002093D6000093D700E092D800C092D900E3
:1005B000A092DA008092DB009092DC00B092DD0025
:1005C0002F3F39F00F3F29F08FEFE81611F0C812D6
:1005D00004C084E08093D20013C088E08093D200EE
:1005E00061E0822F0E94330161E0802F0E9433017D
:1005F00061E08E2D0E94330161E08C2D0E94330159
:1006000061E08D2D0E94330161E0812F0E94330152
:1006100061E08F2D0E94330161E08A2D0E94330139
:1006200061E0882D0E94330161E0892D0E94330131
:1006300061E08B2DDF91CF911F910F91FF90EF9093
:10064000DF90CF90BF90AF909F908F900C9433012C
:10065000CF93C82F0E9468028091D200883021F485
:100660008C2F0E942E0207C08C2F0E94F2010E9444
:100670001202C295C07F8C2F0E94F201CF910C9480
:1006800012029091D000891758F41092DE008093E6
:10069000DF00E82FF0E0E05AFF4F80810C94280340
:1006A000089581E00E94280380E00C944103609348
:1006B000D1008093D000833040F06F7080E9860FC6
:1006C0008093620060536093630084E690E00E9430
:1006D000EC008091D200883011F488E327C0843088
:1006E00039F580E30E94F2010E94120284E690E054
:1006F0000E94EC0080E30E94F2010E94120288EC4A
:1007000090E00E94E60080E30E94F2010E94120243
:1007100088EC90E00E94E60080E20E94F2010E94D4
:10072000120288EC90E00E94E60088E20E94280312
:100730008EE00E9428030C9451038091DF008F5FAC
:100740008093DF001092DE009091D000891710F0A6
:100750001092DF00E091DF00F0E0E05AFF4F80816F
:100760000C9428039091D000891780F49091D100C7
:10077000691760F46093DE008093DF00E82FF0E0FB
:10078000E05AFF4F8081860F0C9428030895CF9381
:10079000C82F9091DE008091D100981760F4CA3084
:1007A00051F00E9468028091D200883049F48C2F69
:1007B0000E942E020CC00E949D03CA3091F0F1CF1E
:1007C0008C2F0E94F2010E944C02C295C07F8C2F98
:1007D0000E94F2010E944C028091DE008F5F8093A4
:1007E000DE00CF910895AF92BF92CF92DF92EF9249
:1007F000FF920F931F93CF93DF931F92CDB7DEB776
:100800006B017C01AA24A394B12C4423F1F00FEFD7
:10081000040FC50102C0880F991F0A95E2F78C01E9
:10082000222717FD2095322F0C211D212E213F213B
:1008300081E0012B022B032B09F480E0805D4983CA
:100840000E94C70349814150E0CF0F90DF91CF91C3
:100850001F910F91FF90EF90DF90CF90BF90AF90DE
:100860000895CF93DF93EC018991882319F00E94BA
:10087000C703FACFDF91CF910895DF92EF92FF92F5
:100880000F931F93CF93DF93D82E8B018091D000CD
:10089000D81608F0D12C8CE00E942803E12CE80146
:1008A000CE0DD11D8881882309F18D2D0E94410331
:1008B000F12C8091D100F81650F4FE01EF0DF11DDE
:1008C0008081882321F00E94C703F394F2CF8091A6
:1008D000D100F81628F480E20E94C703F394F7CF02
:1008E00088EC90E00E94EC00E394D9CF8EE0DF9199
:1008F000CF911F910F91FF90EF90DF900C94280300
:100900007F928F929F92AF92BF92CF92DF92EF929F
:10091000FF920F931F93CF93DF93CDB7DEB72A9744
:100920000FB6F894DEBF0FBECDBF782ECB01BA0153
:10093000C22E22E0721216C04C2D2A960FB6F894E1
:10094000DEBF0FBECDBFDF91CF911F910F91FF9002
:10095000EF90DF90CF90BF90AF909F908F907F905F
:100960000C94F303611571058105910549F0FE01B1
:1009700031967F018F01872C912CA12CB12C29C09D
:1009800080E32A960FB6F894DEBF0FBECDBFDF918D
:10099000CF911F910F91FF90EF90DF90CF90BF907C
:1009A000AF909F908F907F900C94C7036115710555
:1009B0008105910599F0D62EA50194010E94F20CB3
:1009C000CA01B901729ED0181124F801D0820F5FBC
:1009D0001F4FD02EDE18DC1448F310C0FAE0FC15CF
:1009E00068F0F8011082F3CFFE01ED0DF11D80815A
:1009F0008A3038F0895C0E94C703DA94D110F4CFB2
:100A000002C0805DF8CF2A960FB6F894DEBF0FBE05
:100A1000CDBFDF91CF911F910F91FF90EF90DF90AD
:100A2000CF90BF90AF909F908F907F9008952F921E
:100A30003F925F926F927F928F929F92AF92BF92FE
:100A4000CF92DF92EF92FF920F931F93CF93DF939A
:100A5000CDB7DEB72E970FB6F894DEBF0FBECDBF71
:100A6000682E722E470122E0821341C0EE24E394E7
:100A7000F12CA4E0880C991CAA95E1F7772009F4E1
:100A8000A9C08FEF870DD70102C0AA0FBB1F8A959F
:100A9000E2F7CD01AA2797FDA095BA2F84239523CD
:100AA000A623B72321E0892B8A2B8B2B09F420E086
:100AB000E0E3DE2ED20E8D2D4B875C876D877E871F
:100AC0000E94C703D801ED91FC911197E80DF91D23
:100AD000E055FF4FD0828D919C91119701968D9397
:100AE0009C937A947E856D855C854B85C7CF411537
:100AF00051056105710509F454C0FE0131961F01CD
:100B00005F01C82ED12CE12CF12C5A2C521857140D
:100B1000B8F4411551056105710579F0542ECB01EA
:100B2000BA01A70196010E94F20CBA01A901649EC4
:100B300050181124D5015C920BC0BAE0B71530F4FF
:100B400034E0880C991C3A95E1F724C0F501108235
:100B5000FFEFAF1ABF0AD9CFFE01E50DF11D90815D
:100B60009A30D8F087E3890F9B870E94C703D8018A
:100B7000ED91FC919B859A3090F0995CE80DF91D00
:100B8000E055FF4F9083F801808191810196918318
:100B900080835A945110E0CF1DC080E3E4CF905D74
:100BA000EDCF80E30E94C703D8018D919C911197EE
:100BB000F70124E0EE0FFF1F2A95E1F7E80FF91F78
:100BC000E055FF4F80E380838D919C9111970196B2
:100BD0008D939C932E960FB6F894DEBF0FBECDBFBB
:100BE000DF91CF911F910F91FF90EF90DF90CF9009
:100BF000BF90AF909F908F907F906F905F903F904D
:100C00002F900895CF93C82F0E9468028091D20040
:100C1000883021F48C2F0E942E0207C08C2F0E9456
:100C2000F2010E944C02C295C07F8C2F0E94F201FB
:100C3000CF910C944C02AF92BF92CF92DF92EF9281
:100C4000FF920F931F93CF93DF93CDB7DEB7C854B6
:100C5000D1090FB6F894DEBF0FBECDBF88E0E4E641
:100C6000F0E0DE01AF5BBF4F01900D928A95E1F796
:100C700080E4ECE6F0E0DE01119601900D928A9599
:100C8000E1F78E010F5B1F4FCE0101966C015801F9
:100C900098E0A90EB11CF80181918F010E942803F0
:100CA000E12CF12CF601EE0DFF1D80810E94020661
:100CB000FFEFEF1AFF0A88E0E816F10499F798E0D1
:100CC000C90ED11C0A151B0531F7C85BDF4F0FB6E3
:100CD000F894DEBF0FBECDBFDF91CF911F910F9172
:100CE000FF90EF90DF90CF90BF90AF90089581304C
:100CF000910511F480E021C08230910511F481E06A
:100D00001CC08330910511F482E017C08430910536
:100D100011F483E012C08530910511F484E00DC018
:100D20008630910511F485E008C08730910511F4F3
:100D300086E003C0089719F487E00C940206089532
:100D40008FEF0C9402068FE70C9402068EE70C944A
:100D5000020685EA0C940206DF92EF92FF920F934F
:100D60001F93CF93DF93FC01EB018A01B4E0000FE6
:100D7000111FBA95E1F7D080DD2009F46AC085E241
:100D80007F01D81252C082E0E80EF11CD1808EE3C0
:100D9000D816B1F18D15C8F08EE2D81609F442C00C
:100DA0008D1540F085E2D81649F18CE2D8124FC07B
:100DB00085E029C08BE3D81669F18CE3D81611F1D0
:100DC0008AE3D81244C086E01EC08DE5D81639F1FA
:100DD0008D1548F08FE3D816F9F08BE5D81237C09F
:100DE0000E94A30628C08CE7D81681F08DE7D8169C
:100DF00079F08BE7D8122BC083E005C085E219C0DB
:100E000080E001C081E00E94020615C082E0FBCFB5
:100E100084E0F9CF87E0F7CF0E94A0060CC00E94C3
:100E2000A60609C00E94A90606C08FEFE81AF80AB4
:100E30008D2D0E94C703E881F981E00FF11FE05575
:100E4000FF4FD08288819981019699838883F70129
:100E500092CFDF91CF911F910F91FF90EF90DF9094
:100E600008956F927F928F929F92AF92BF92CF928E
:100E7000DF92EF92FF920F931F93CF93DF93CDB743
:100E8000DEB727970FB6F894DEBF0FBECDBF188D23
:100E9000098DAA8CBB8C6C8C7D8C612F8A2D0E9455
:100EA000B20319830A838E01025E1F4F650184E03D
:100EB000CC0CDD1C8A95E1F7F3019080992009F4B0
:100EC0007EC185E2981266C143019FEF891A990A93
:100ED000F301918180ED890F8A3080F420E080ED6C
:100EE000890F8A3060F4FAE02F9F800D1124282F9B
:100EF0008FEF881A980AF4019081F1CF2FEF953582
:100F000009F4DEC078F59C3309F462C0A0F49E3287
:100F100009F46DC040F4953209F42AC19C3209F0FD
:100F200049C185E056C09A3309F45BC09B3309F090
:100F300041C187E04EC0923409F4F7C050F49E33AB
:100F400009F444C09F3309F035C19B830E94A00679
:100F500013C1943409F488C008F44DC0933509F4E2
:100F6000F8C028C1943609F45CC098F49D35D9F1D5
:100F700050F4983509F4BDC09B3509F01BC19B8323
:100F80000E94A306F9C0923609F4C2C0933699F1C3
:100F900011C1983709F4A3C080F4933709F4D9C07C
:100FA000953709F007C13801F2E06F0E711CF801A6
:100FB0004081518160E070E08CC09C3771F09D37BA
:100FC00071F09B3709F0F6C083E003C080E001C0F8
:100FD00081E09B830E940206CFC082E0FACF84E0CA
:100FE000F8CF86E0F6CF9B830E94A606C5C09B8300
:100FF0000E94A906C1C03801F2E06F0E711CF80111
:101000001081812F0E94C70329813A81F601E20FE6
:10101000F31FE055FF4F10832F5F3F4F3A83298323
:10102000A5C03801F2E06F0E711CF801008111813A
:1010300017FF14C01195019511098DE22F830E94AD
:10104000C70389819A81F601E80FF91FE055FF4F28
:101050003DE2308301969A8389832F81A801662718
:1010600057FD6095762F35C03801F4E06F0E711C86
:10107000F801408151816281738177FF2AC07095A8
:101080006095509541955F4F6F4F7F4F8DE22F8355
:101090004B835C836D837E830E94C70389819A8121
:1010A000F601E80FF91FE055FF4F3DE2308301964E
:1010B0009A8389837E816D815C814B812F8109C0F8
:1010C0003801F4E06F0E711CF8014081518162819A
:1010D000738175018E010F5F1F4F8AE037C03801A1
:1010E000F2E06F0E711CF8014081518160E070E008
:1010F00009C03801F4E06F0E711CF8014081518184
:101100006281738175018E010F5F1F4F80E11EC0E8
:101110003801F2E06F0E711CF801408151812F3FC0
:1011200009F420E160E070E00CC03801F4E06F0EDB
:10113000711CF80140815181628173812F3F09F454
:1011400020E175018E010F5F1F4F82E00E9417059D
:101150000DC03801F2E06F0E711CA501BE016F5F7A
:101160007F4FF801808191810E94AC06830122C0EB
:1011700085E29B830E94C70329813A81F601E20F31
:10118000F31FE055FF4F9B8190832F5F3F4F3A83C2
:10119000298310C0892D0E94C70329813A81F60155
:1011A000E20FF31FE055FF4F90822F5F3F4F3A83CE
:1011B000298343013401FFEF6F1A7F0A7DCE279602
:1011C0000FB6F894DEBF0FBECDBFDF91CF911F9158
:1011D0000F91FF90EF90DF90CF90BF90AF909F90D6
:1011E0008F907F906F900895FC0182819381861784
:1011F0009707ECF080EB90E09F938F931F921F92E4
:101200001F921F920E94310780EC90E09F938F9372
:101210001F921F921F9281E08F930E9431078DB71A
:101220009EB70C960FB6F8949EBF0FBE8DBF089563
:10123000CF92DF92EF92FF920F931F93CF93DF93A2
:1012400000D000D01F92CDB7DEB7FE017096E190BE
:10125000F1906F01F7018081882309F429C185325B
:1012600009F01EC187010F5F1F4FF701818190EDCB
:10127000980F9A3078F420E090ED980F9A3058F457
:10128000FAE02F9F900D1124292F0F5F1F4FF801B7
:101290008081F2CF2FEF853509F4B4C070F58C331F
:1012A00009F460C0A0F48E3209F469C040F48532BC
:1012B00009F4F2C08C3209F0F6C085E05AC08A33D6
:1012C00009F456C08B3309F0EEC087E052C0823477
:1012D00009F4C7C048F48E3309F442C08F3309F0D3
:1012E000E2C00E94A006DFC0843409F46BC008F499
:1012F00049C0833509F4C5C0D6C0843609F44BC053
:1013000090F48D35C9F148F4883509F490C08B35D7
:1013100009F0C9C00E94A306C6C0823609F494C071
:10132000833681F1C0C0883709F477C080F48337F1
:1013300009F4A7C0853709F0B6C07601F2E0EF0ED8
:10134000F11CF6014081518160E070E064C08C378F
:1013500059F08D3759F08B3709F0A5C083E009C0EB
:1013600080E007C081E005C082E003C084E001C0E6
:1013700086E00E94020697C00E94A60694C00E94C2
:10138000A90691C07601F2E0EF0EF11CF601808112
:101390000E94C7037FC07601F2E0EF0EF11CF60158
:1013A000C080D180D7FE08C0D194C194D1088DE20D
:1013B0002D830E94C7032D81A601662757FD6095E6
:1013C000762F29C07601F4E0EF0EF11CF601408182
:1013D00051816281738177FF1EC070956095509531
:1013E00041955F4F6F4F7F4F8DE22D8349835A8325
:1013F0006B837C830E94C7037C816B815A81498106
:101400002D8109C07601F4E0EF0EF11CF601408158
:101410005181628173818AE014C07601F2E0EF0E9F
:10142000F11CF6014081518160E070E009C0760155
:10143000F4E0EF0EF11CF60140815181628173816D
:1014400080E10E94800426C07601F2E0EF0EF11CDC
:10145000F601608171812F3F09F420E180E090E086
:101460000CC07601F4E0EF0EF11CF6016081718191
:10147000828193812F3F09F420E1422F0E94F303E0
:1014800009C07601F2E0EF0EF11CF6018081918136
:101490000E943104670107C085E20E94C70303C0B0
:1014A0000E94C70387017801FFEFEF1AFF0AD2CE2F
:1014B0000F900F900F900F900F90DF91CF911F9191
:1014C0000F91FF90EF90DF90CF900895CF92DF9231
:1014D000EF92FF926B017C01DC01CB0180569940B9
:1014E000A109B109813A984BA140B10598F4A8EF40
:1014F000BFEFA70196010E94170D7659874E9F4FA7
:10150000E4E0220F331F441F551FEA95D1F70E94D4
:10151000F20C01C029E029B910BCFF90EF90DF90D8
:10152000CF90089528E12AB926E820BD1BB80C9475
:10153000660A5F9BFECF8CB108955D9BFECF8CB990
:101540000895AF92BF92CF92DF92EF92FF920F93E6
:101550001F93CF93DF931F92CDB7DEB76B017C0152
:10156000AA24A394B12C4423F1F00FEF040FC5017A
:1015700002C0880F991F0A95E2F78C01222717FDF8
:101580002095322F0C211D212E213F2181E0012B9E
:10159000022B032B09F480E0805D49830E949D0AA1
:1015A00049814150E0CF0F90DF91CF911F910F9172
:1015B000FF90EF90DF90CF90BF90AF900895CF93C2
:1015C000DF93EC018991882319F00E949D0AFACFDC
:1015D000DF91CF910895FF920F931F93CF93DF93E5
:1015E0008C01C8EED3E0F12C0E94990A8D3029F4C9
:1015F000F801EF0DF11D108210C08A30C9F3883058
:1016000021F4FF2011F0FA9405C0F801EF0DF11D4F
:101610008083F3942197209739F78F2DDF91CF9115
:101620001F910F91FF9008957F928F929F92AF929A
:10163000BF92CF92DF92EF92FF920F931F93CF93BF
:10164000DF93CDB7DEB72A970FB6F894DEBF0FBE93
:10165000CDBF782ECB01BA01C22E22E0721216C085
:101660004C2D2A960FB6F894DEBF0FBECDBFDF918A
:10167000CF911F910F91FF90EF90DF90CF90BF908F
:10168000AF909F908F907F900C94A10A6115710587
:101690008105910549F0FE0131967F018F01872C6C
:1016A000912CA12CB12C1DC010E01C15A1F11A30F9
:1016B00091F180E30E949D0A1F5FF7CF61157105CC
:1016C0008105910599F0D62EA50194010E94F20C96
:1016D000CA01B901729ED0181124F801D0820F5F9F
:1016E0001F4FD02EDE18DC1448F310C0FAE0FC15B2
:1016F00068F0F8011082F3CFFE01ED0DF11D80813D
:101700008A3038F0895C0E949D0ADA94D110F4CFB7
:1017100002C0805DF8CF2A960FB6F894DEBF0FBEE8
:10172000CDBFDF91CF911F910F91FF90EF90DF9090
:10173000CF90BF90AF909F908F907F9008958F92A1
:101740009F92AF92BF92CF92DF92EF92FF926B0186
:101750007C010E949B0D4B015C012FEFAB01BC0192
:101760008AE00E94140B8EE20E949D0AC501B4011A
:101770000E94C70D9B01AC01C701B6010E94360D46
:1017800020E034E244E759E40E94550E0E949B0D8C
:10179000AB01BC012FEF8AE0FF90EF90DF90CF907C
:1017A000BF90AF909F908F900C94140BCF92DF92CC
:1017B000EF92FF920F931F93CF93DF9300D000D04F
:1017C0001F92CDB7DEB7FE017096E190F1906F01E8
:1017D000F7018081882309F4F7C0853209F0ECC055
:1017E00087010F5F1F4FF701818190ED980F9A30AD
:1017F00078F420E090ED980F9A3058F4FAE02F9F9B
:10180000900D1124292F0F5F1F4FF8018081F2CF17
:101810002FEF883509F48FC0C8F4843409F44CC024
:1018200058F4823409F4A1C038F5853209F0C7C0F4
:1018300085E20E949D0AC3C0833509F4B2C0853594
:1018400009F464C0863409F0BAC09FC0863609F432
:101850009CC040F4833681F08436B9F0823609F0BA
:10186000AEC076C0853709F447C0883709F459C03F
:10187000833709F0A4C095C07601F2E0EF0EF11CA9
:10188000F60180810E949D0A95C07601F2E0EF0E7C
:10189000F11CF601C080D180D7FE08C0D194C1945C
:1018A000D1088DE22D830E949D0A2D81A601662715
:1018B00057FD6095762F33C07601F4E0EF0EF11CF2
:1018C000F601408151816281738177FF28C0709554
:1018D0006095509541955F4F6F4F7F4F8DE22D83FF
:1018E00049835A836B837C830E949D0A7C816B8130
:1018F0005A8149812D8113C07601F2E0EF0EF11C6F
:10190000F6014081518160E070E009C07601F4E0A9
:10191000EF0EF11CF60140815181628173818AE0F2
:1019200014C07601F2E0EF0EF11CF6014081518106
:1019300060E070E009C07601F4E0EF0EF11CF60102
:10194000408151816281738180E10E94140B32C019
:101950007601F2E0EF0EF11CF601608171812F3FFC
:1019600009F420E180E090E00CC07601F4E0EF0E95
:10197000F11CF60160817181828193812F3F09F40E
:1019800020E2422F0E94A10A15C07601F4E0EF0E7A
:10199000F11CF60160817181828193810E949F0B0D
:1019A00009C07601F2E0EF0EF11CF6018081918111
:1019B0000E94DF0A670103C00E949D0A8701780127
:1019C000FFEFEF1AFF0A04CF0F900F900F900F90C8
:1019D0000F90DF91CF911F910F91FF90EF90DF90CB
:1019E000CF900895A1E21A2EAA1BBB1BFD010DC0CA
:1019F000AA1FBB1FEE1FFF1FA217B307E407F507BF
:101A000020F0A21BB30BE40BF50B661F771F881F9A
:101A1000991F1A9469F760957095809590959B0130
:101A2000AC01BD01CF010895B7FF0C941C0D0E94BD
:101A30001C0D821B930B08950E94270DA59F900DEE
:101A4000B49F900DA49F800D911D11240895A29F15
:101A5000B001B39FC001A39F700D811D1124911D82
:101A6000B29F700D811D1124911D08955058BB2700
:101A7000AA270ED0E0C0D1D030F0D6D020F031F47B
:101A80009F3F11F41EF4C6C00EF4E095E7FBBCC006
:101A9000E92FE2D080F3BA1762077307840795072E
:101AA00018F071F49EF5FAC00EF4E0950B2EBA2FE3
:101AB000A02D0B01B90190010C01CA01A001112454
:101AC000FF27591B99F0593F50F4503E68F11A1600
:101AD000F040A22F232F342F4427585FF3CF469591
:101AE00037952795A795F0405395C9F77EF41F16B3
:101AF000BA0B620B730B840BBAF09150A1F0FF0F7D
:101B0000BB1F661F771F881FC2F70EC0BA0F621F68
:101B1000731F841F48F4879577956795B795F79558
:101B20009E3F08F0B3CF9395880F08F09927EE0FEA
:101B300097958795089598D088F09F5790F0B92F82
:101B40009927B751A0F0D1F0660F771F881F991F12
:101B50001AF0BA95C9F712C0B13081F09FD0B1E048
:101B600008959CC0672F782F8827B85F39F0B93F58
:101B7000CCF3869577956795B395D9F73EF4909514
:101B80008095709561957F4F8F4F9F4F0895E89492
:101B900009C097FB3EF490958095709561957F4FB5
:101BA0008F4F9F4F9923A9F0F92F96E9BB27939563
:101BB000F695879577956795B795F111F8CFFAF473
:101BC000BB0F11F460FF1BC06F5F7F4F8F4F9F4FA4
:101BD00016C0882311F096E911C0772321F09EE802
:101BE000872F762F05C0662371F096E8862F70E068
:101BF00060E02AF09A95660F771F881FDAF7880F42
:101C00009695879597F9089597F99F6780E870E012
:101C100060E008959FEF80EC089500240A94161662
:101C2000170618060906089500240A9412161306CA
:101C3000140605060895092E0394000C11F4882358
:101C400052F0BB0F40F4BF2B11F460FF04C06F5F74
:101C50007F4F8F4F9F4F089557FD9058440F551F4A
:101C600059F05F3F71F04795880F97FB991F61F01E
:101C70009F3F79F087950895121613061406551F95
:101C8000F2CF4695F1DF08C0161617061806991F01
:101C9000F1CF86957105610508940895E894BB27F6
:101CA00066277727CB0197F908950BD0C4CFB5DF0E
:101CB00028F0BADF18F0952309F0A6CFABCF112496
:101CC000EECFCADFA0F3959FD1F3950F50E0551FDB
:101CD000629FF001729FBB27F00DB11D639FAA2781
:101CE000F00DB11DAA1F649F6627B00DA11D661FD0
:101CF000829F2227B00DA11D621F739FB00DA11DF1
:101D0000621F839FA00D611D221F749F3327A00DAA
:101D1000611D231F849F600D211D822F762F6A2F46
:101D200011249F5750408AF0E1F088234AF0EE0FCB
:101D3000FF1FBB1F661F771F881F91505040A9F7D8
:101D40009E3F510570F060CFAACF5F3FECF3983E05
:101D5000DCF3869577956795B795F795E7959F5F3F
:101D6000C1F7FE2B880F911D9695879597F90895D9
:041D7000F894FFCF15
:101D740080C090D0404850586068707810181E1F7A
:101D84001F1E181001030F1F1F0F03011B1B1B1B1A
:101D94001B1B1B1B000000000000000000000000D3
:101DA400000000000103071F1F0703010E1111119A
:101DB4001F1B1B1F0004040E1515110E25640000C3
:00000001FF
