:100000000C9434000C9451000C9451000C94510049
:100010000C9451000C9451000C9451000C9451001C
:100020000C9451000C9451000C9451000C9451000C
:100030000C9451000C9451000C9451000C945100FC
:100040000C9451000C9451000C9451000C945100EC
:100050000C9451000C9451000C9451000C945100DC
:100060000C9451000C94510011241FBECFEFD8E026
:10007000DEBFCDBF11E0A0E0B1E0E8EFFCE102C0DF
:1000800005900D92AE35B107D9F721E0AEE5B1E0AC
:1000900001C01D92A03AB207E1F70E94C7020C947A
:1000A0007A0E0C94000084B1866084B90895CF93D1
:1000B000C82F70E080E090E00E94670D23E333E3F7
:1000C00043E250E40E94170E0E94390DC13041F006
:1000D000C23059F470E070938B0060938A0005C0C1
:1000E00070E07093890060938800CF910895A0E834
:1000F000B0E08C9181608C93E1E8F0E080818860D1
:1001000080838C91806A8C9380818360808310923D
:1001100089001092880010928B0010928A00089536
:1001200080916001909161010196909361018093AB
:10013000600120910201309103018217930734F08E
:10014000109261011092600181E0089580E00895AD
:1001500080915E0190915F01019690935F01809381
:100160005E0120910001309101018217930734F064
:1001700010925F0110925E0181E0089580E0089581
:100180001F93CF93DF930E94D10480916D018F93D1
:1001900080916C018F9380916F018F9380916E019C
:1001A0008F93C3E5D1E0DF93CF931F921F921F92ED
:1001B00011E01F930E94E808809169018F9380915C
:1001C00068018F9380916B018F9380916A018F9367
:1001D000DF93CF931F921F931F921F930E94E808F3
:1001E0008DB79EB744960FB6F8949EBF0FBE8DBFD5
:1001F000C0910601C130E1F489E591E09F938F93AE
:100200001F921F921F921F920E94E8088BE591E0B7
:100210009F938F931F92CF931F921F920E94E80883
:100220008DB79EB70C960FB6F8949EBF0FBE8DBFCC
:10023000809106018230E9F48BE591E09F938F93E2
:100240001F921F921F921F920E94E80889E591E079
:100250009F938F931F9281E08F931F921F920E9412
:10026000E8088DB79EB70C960FB6F8949EBF0FBEE8
:100270008DBFDF91CF911F91089580916201909180
:1002800063010196909363018093620120910401C0
:10029000309105018217930734F010926301109298
:1002A00062010C94C00008958F92AF92CF92EF92AA
:1002B0000F938EE18F938DE18F938CE1882E9BE1DC
:1002C000A92ECC24CA94EE24EA940FEF2FEF4AE132
:1002D00069E188E10E94370468E082E00E94D70467
:1002E0000E9453000E94770017B88FEF88B980E40E
:1002F00080937C0087E880937A000F900F900F9195
:10030000EF90CF90AF908F90089590917C00877080
:10031000987F892B80937C0080917A008064809301
:100320007A0080917A0086FDFCCF809178009091D0
:10033000790008950E948501BC0180E090E00E9450
:10034000650D29E134E64EE553E40E94D10C089591
:10035000CF92DF92EF92FF92CF93C42F20E030E054
:1003600048EC52E40E94170E23E333E343E950E4E0
:100370000E94D10C6B017C016C2F70E080E090E05A
:100380000E94670D20E030E048EC52E40E94D10C5E
:100390009B01AC01C701B6010E94170E0E94390DE6
:1003A000CB01CF91FF90EF90DF90CF900895CF9247
:1003B000DF92EF92FF92C0906401D0906501E090CF
:1003C0006601F090670184E00E949A019B01AC01F4
:1003D000C701B6010E94CD0C882361F184E00E9420
:1003E0009A016B017C0160936401709365018093B5
:1003F000660190936701409168010E94A801909363
:100400006B0180936A0140916C01C701B6010E94A3
:10041000A80180936E0190936F01682F81E00E9484
:10042000570060916A0182E0FF90EF90DF90CF90DB
:100430000C945700FF90EF90DF90CF9008956623C3
:1004400009F1813019F0823079F008950E94A800F6
:10045000882309F460C080916C0190916D0184360D
:10046000910528F501961FC00E94A800882309F471
:1004700052C0809168019091690184369105B8F568
:10048000019631C0813019F0823011F108950E9437
:10049000A800882309F43FC080916C0190916D0100
:1004A000009729F0019790936D0180936C01609102
:1004B000640170916501809166019091670140919E
:1004C0006C010E94A80180936E0190936F011FC080
:1004D0000E94A8008823F9F0809168019091690139
:1004E000009729F0019790936901809368016091CA
:1004F000640170916501809166019091670140915E
:1005000068010E94A80180936A0190936B01682F93
:1005100081E00C945700089560916E0181E00E9483
:10052000570060916A0182E00E9457000E943D01DD
:100530000E94D70132990DC080910601823048F0A7
:100540000E949000882329F08091060181508093B9
:10055000060133990DC080910601823048F40E9453
:100560009000882329F0809106018F5F8093060117
:10057000309905C061E0809106010E941F02319907
:10058000D5CF60E0809106010E941F02CFCF0E946C
:1005900054010E948C02009719F000C00197FBCF14
:1005A0000895009741F0EFE8F1E03197F1F700C0CE
:1005B00000000197F6CF0895282F2770869586951D
:1005C00086958230A9F0833021F1813091F534B1E4
:1005D00081E090E0022E01C0880F0A94EAF76623BA
:1005E00019F0382B34B908958095832384B9089580
:1005F00037B181E090E0022E01C0880F0A94EAF73B
:10060000662319F0382B37B908958095832387B96D
:1006100008953AB181E090E0022E01C0880F0A945B
:10062000EAF7662319F0382B3AB9089580958323A9
:100630008AB90895282F27708695869586958230E9
:10064000A9F0833021F1813091F535B181E090E05E
:10065000022E01C0880F0A94EAF7662319F0382B9E
:1006600035B908958095832385B9089538B181E01F
:1006700090E0022E01C0880F0A94EAF7662319F071
:10068000382B38B908958095832388B908953BB1F4
:1006900081E090E0022E01C0880F0A94EAF76623F9
:1006A00019F0382B3BB90895809583238BB90895B1
:1006B000282F2770869586958695823031F0833075
:1006C00031F0813069F483B103C086B101C089B1D2
:1006D00090E002C0959587952A95E2F7817008957C
:1006E00080E00895CF93C82F84FB662760F980913E
:1006F0009A010E941A03C5FB662760F980919B014D
:100700000E941A03C6FB662760F980919C010E9433
:100710001A036C2F661F6627661F80919D01CF917B
:100720000C941A03CF93DF9360E0809193010E94B1
:100730001A0360E0809194010E941A03C5E9D1E098
:1007400061E088810E941A038AE090E00E94CB0257
:1007500060E08881DF91CF910C941A03CF93C82F6A
:10076000682F6170809196010E941A03C1FB662771
:1007700060F9809197010E941A03C2FB662760F915
:10078000809198010E941A03C3FB662760F980914B
:100790009901CF910C941A03CF93DF9361E080917C
:1007A00093010E941A0360E0809194010E941A0351
:1007B000C5E9D1E061E088810E941A038AE090E0F7
:1007C0000E94CB0260E08881DF91CF910C941A03E4
:1007D000CF93809194018F3F09F444C060E08091F1
:1007E0009D010E94DC0260E0809193010E941A0347
:1007F00061E0809194010E941A0360E0809195016C
:100800000E941A038AE090E00E94CB0261E080918E
:1008100095010E941A038AE090E00E94CB02809129
:100820009D010E945803C82F80919201843091F459
:1008300060E0809195010E941A038AE090E00E9496
:10084000CB0261E0809195010E941A038AE090E05A
:100850000E94CB02C111D1CF61E080919D01CF9167
:100860000C94DC0281E090E0CF910C94D1028F9245
:100870009F92AF92BF92CF92DF92EF92FF920F932F
:100880001F93CF93DF93CDB7DEB7D82E162FF42E5C
:100890009F84B8888093930160939401409395015D
:1008A0002093960100939701E0929801C0929901DC
:1008B000A0929A0180929B0190929C01B0929D011E
:1008C0002F3F39F00F3F29F08FEFE81611F0C812D3
:1008D00004C084E08093920113C088E08093920169
:1008E00061E0822F0E94DC0261E0802F0E94DC0226
:1008F00061E08E2D0E94DC0261E08C2D0E94DC0202
:1009000061E08D2D0E94DC0261E0812F0E94DC02FB
:1009100061E08F2D0E94DC0261E08A2D0E94DC02E2
:1009200061E0882D0E94DC0261E0892D0E94DC02DA
:1009300061E08B2DDF91CF911F910F91FF90EF9090
:10094000DF90CF90BF90AF909F908F900C94DC027F
:10095000CF93C82F0E94E80380919201883021F440
:100960008C2F0E94AE0307C08C2F0E9472030E943E
:100970009203C295C07F8C2F0E947203CF910C947A
:10098000920390919001891758F410929E018093E0
:100990009F01E82FF0E0E95FFE4F80810C94A804EE
:1009A000089581E00E94A80480E00C94C104609343
:1009B000910180939001833040F06F7080E9860F41
:1009C00080930901605360930A0184E690E00E94DD
:1009D000D10280919201883011F488E327C08430DD
:1009E00039F580E30E9472030E94920384E690E04E
:1009F0000E94D10280E30E9472030E94920388EC5D
:100A000090E00E94CB0280E30E9472030E94920356
:100A100088EC90E00E94CB0280E20E9472030E9468
:100A2000920388EC90E00E94CB0288E20E94A80426
:100A30008EE00E94A8040C94D10480919F018F5FE6
:100A400080939F0110929E0190919001891710F060
:100A500010929F01E0919F01F0E0E95FFE4F8081DD
:100A60000C94A80490919001891780F490919101C1
:100A7000691760F460939E0180939F01E82FF0E076
:100A8000E95FFE4F8081860F0C94A8040895CF93F0
:100A9000C82F90919E0180919101981760F4CA30FF
:100AA00051F00E94E80380919201883049F48C2F24
:100AB0000E94AE030CC00E941D05CA3091F0F1CF18
:100AC0008C2F0E9472030E94CC03C295C07F8C2F92
:100AD0000E9472030E94CC0380919E018F5F8093DD
:100AE0009E01CF910895AF92BF92CF92DF92EF9285
:100AF000FF920F931F93CF93DF931F92CDB7DEB773
:100B00006B017C01AA24A394B12C4423F1F00FEFD4
:100B1000040FC50102C0880F991F0A95E2F78C01E6
:100B2000222717FD2095322F0C211D212E213F2138
:100B300081E0012B022B032B09F480E0805D4983C7
:100B40000E94470549814150E0CF0F90DF91CF913E
:100B50001F910F91FF90EF90DF90CF90BF90AF90DB
:100B60000895CF93DF93EC018991882319F00E94B7
:100B70004705FACFDF91CF910895DF92EF92FF9270
:100B80000F931F93CF93DF93D82E8B018091900109
:100B9000D81608F0D12C8CE00E94A804E12CE801C2
:100BA000CE0DD11D8881882309F18D2D0E94C104AD
:100BB000F12C80919101F81650F4FE01EF0DF11D1A
:100BC0008081882321F00E944705F394F2CF809121
:100BD0009101F81628F480E20E944705F394F7CFBC
:100BE00088EC90E00E94D102E394D9CF8EE0DF91AF
:100BF000CF911F910F91FF90EF90DF900C94A8047C
:100C00007F928F929F92AF92BF92CF92DF92EF929C
:100C1000FF920F931F93CF93DF93CDB7DEB72A9741
:100C20000FB6F894DEBF0FBECDBF782ECB01BA0150
:100C3000C22E22E0721216C04C2D2A960FB6F894DE
:100C4000DEBF0FBECDBFDF91CF911F910F91FF90FF
:100C5000EF90DF90CF90BF90AF909F908F907F905C
:100C60000C947305611571058105910549F0FE012C
:100C700031967F018F01872C912CA12CB12C29C09A
:100C800080E32A960FB6F894DEBF0FBECDBFDF918A
:100C9000CF911F910F91FF90EF90DF90CF90BF9079
:100CA000AF909F908F907F900C94470561157105D0
:100CB0008105910599F0D62EA50194010E94460C5C
:100CC000CA01B901729ED0181124F801D0820F5FB9
:100CD0001F4FD02EDE18DC1448F310C0FAE0FC15CC
:100CE00068F0F8011082F3CFFE01ED0DF11D808157
:100CF0008A3038F0895C0E944705DA94D110F4CF2D
:100D000002C0805DF8CF2A960FB6F894DEBF0FBE02
:100D1000CDBFDF91CF911F910F91FF90EF90DF90AA
:100D2000CF90BF90AF909F908F907F9008952F921B
:100D30003F925F926F927F928F929F92AF92BF92FB
:100D4000CF92DF92EF92FF920F931F93CF93DF9397
:100D5000CDB7DEB72E970FB6F894DEBF0FBECDBF6E
:100D6000682E722E470122E0821341C0EE24E394E4
:100D7000F12CA4E0880C991CAA95E1F7772009F4DE
:100D8000A9C08FEF870DD70102C0AA0FBB1F8A959C
:100D9000E2F7CD01AA2797FDA095BA2F84239523CA
:100DA000A623B72321E0892B8A2B8B2B09F420E083
:100DB000E0E3DE2ED20E8D2D4B875C876D877E871C
:100DC0000E944705D801ED91FC911197E80DF91D9E
:100DD000E059FE4FD0828D919C91119701968D9391
:100DE0009C937A947E856D855C854B85C7CF411534
:100DF00051056105710509F454C0FE0131961F01CA
:100E00005F01C82ED12CE12CF12C5A2C521857140A
:100E1000B8F4411551056105710579F0542ECB01E7
:100E2000BA01A70196010E94460CBA01A901649E6D
:100E300050181124D5015C920BC0BAE0B71530F4FC
:100E400034E0880C991C3A95E1F724C0F501108232
:100E5000FFEFAF1ABF0AD9CFFE01E50DF11D90815A
:100E60009A30D8F087E3890F9B870E944705D80105
:100E7000ED91FC919B859A3090F0995CE80DF91DFD
:100E8000E059FE4F9083F801808191810196918312
:100E900080835A945110E0CF1DC080E3E4CF905D71
:100EA000EDCF80E30E944705D8018D919C91119769
:100EB000F70124E0EE0FFF1F2A95E1F7E80FF91F75
:100EC000E059FE4F80E380838D919C9111970196AC
:100ED0008D939C932E960FB6F894DEBF0FBECDBFB8
:100EE000DF91CF911F910F91FF90EF90DF90CF9006
:100EF000BF90AF909F908F907F906F905F903F904A
:100F00002F9008958F929F92AF92BF92CF92DF92CF
:100F1000EF92FF926B017C010E94390D4B015C0145
:100F20002FEFAB01BC018AE00E9400068EE20E9416
:100F30004705C501B4010E94650D9B01AC01C701C5
:100F4000B6010E94680C20E034E244E759E40E94B4
:100F5000170E0E94390DAB01BC012FEF8AE0FF9004
:100F6000EF90DF90CF90BF90AF909F908F900C94B8
:100F70000006CF93C82F0E94E80380919201883029
:100F800021F48C2F0E94AE0307C08C2F0E947203A5
:100F90000E94CC03C295C07F8C2F0E947203CF9118
:100FA0000C94CC03AF92BF92CF92DF92EF92FF925C
:100FB0000F931F93CF93DF93CDB7DEB7C854D109FA
:100FC0000FB6F894DEBF0FBECDBF88E0EBE0F1E0D6
:100FD000DE01AF5BBF4F01900D928A95E1F780E48F
:100FE000E3E1F1E0DE01119601900D928A95E1F7BF
:100FF0008E010F5B1F4FCE0101966C01580198E0E6
:10100000A90EB11CF80181918F010E94A804E12C66
:10101000F12CF601EE0DFF1D80810E94B907FFEF54
:10102000EF1AFF0A88E0E816F10499F798E0C90E74
:10103000D11C0A151B0531F7C85BDF4F0FB6F894BA
:10104000DEBF0FBECDBFDF91CF911F910F91FF90FB
:10105000EF90DF90CF90BF90AF90089581309105D1
:1010600011F480E021C08230910511F481E01CC0B0
:101070008330910511F482E017C08430910511F49A
:1010800083E012C08530910511F484E00DC08630F4
:10109000910511F485E008C08730910511F486E0D0
:1010A00003C0089719F487E00C94B90708958FEFEF
:1010B0000C94B9078FE70C94B9078EE70C94B90725
:1010C00085EA0C94B907DF92EF92FF920F931F937A
:1010D000CF93DF93FC01EB018A01B4E0000F111FF5
:1010E000BA95E1F7D080DD2009F46AC085E27F017E
:1010F000D81252C082E0E80EF11CD1808EE3D816DF
:10110000B1F18D15C8F08EE2D81609F442C08D15E4
:1011100040F085E2D81649F18CE2D8124FC085E044
:1011200029C08BE3D81669F18CE3D81611F18AE354
:10113000D81244C086E01EC08DE5D81639F18D1551
:1011400048F08FE3D816F9F08BE5D81237C00E942B
:101150005A0828C08CE7D81681F08DE7D81679F0A8
:101160008BE7D8122BC083E005C085E219C080E070
:1011700001C081E00E94B90715C082E0FBCF84E086
:10118000F9CF87E0F7CF0E9457080CC00E945D0896
:1011900009C00E94600806C08FEFE81AF80A8D2D7A
:1011A0000E944705E881F981E00FF11FE059FE4FE9
:1011B000D08288819981019699838883F70192CFA3
:1011C000DF91CF911F910F91FF90EF90DF900895E5
:1011D0006F927F928F929F92AF92BF92CF92DF9247
:1011E000EF92FF920F931F93CF93DF93CDB7DEB7AC
:1011F00027970FB6F894DEBF0FBECDBF188D098DAF
:10120000AA8CBB8C6C8C7D8C612F8A2D0E94320540
:1012100019830A838E01025E1F4F650184E0CC0CA6
:10122000DD1C8A95E1F7F3019080992009F493C1C0
:1012300085E298127BC143019FEF891A990AF30155
:10124000918180ED890F8A3080F420E080ED890F54
:101250008A3060F4FAE02F9F800D1124282F8FEF41
:10126000881A980AF4019081F1CF2FEF953509F48F
:10127000E7C080F59E3309F465C0B8F49E3209F4E6
:1012800076C040F4953209F43FC19C3209F05EC14A
:1012900085E05BC09B3309F460C09C3309F454C003
:1012A0009A3309F053C186E050C0933409F463C007
:1012B00038F49F3309F453C0923409F4F6C046C1A0
:1012C000963409F406C1933509F40FC1943409F436
:1012D0008BC03CC1963609F4FCC0B8F49D3509F4C6
:1012E00042C050F4983509F4C4C09B3509F02EC1B2
:1012F0009B830E945A080CC19336E9F1943609F495
:1013000050C0923609F022C1C3C0983709F4A7C073
:1013100080F4933709F4E9C0953709F017C1380113
:10132000F2E06F0E711CF8014081518160E070E0C5
:1013300090C09C3771F09D3771F09B3709F006C162
:1013400083E003C080E001C081E09B830E94B90775
:10135000DFC082E0FACF84E0F8CF87E0F6CF9B834E
:101360000E945708D5C09B830E945D08D1C09B8313
:101370000E946008CDC03801F2E06F0E711CF801C8
:101380001081812F0E94470529813A81F601E20FE1
:10139000F31FE059FE4F10832F5F3F4F3A8329839D
:1013A000B1C03801F2E06F0E711CF80100811181AB
:1013B00017FF14C01195019511098DE22F830E942A
:1013C000470589819A81F601E80FF91FE059FE4F20
:1013D0003DE2308301969A8389832F81A801662795
:1013E00057FD6095762F35C03801F4E06F0E711C03
:1013F000F801408151816281738177FF2AC0709525
:101400006095509541955F4F6F4F7F4F8DE22F83D1
:101410004B835C836D837E830E94470589819A811B
:10142000F601E80FF91FE059FE4F3DE230830196C7
:101430009A8389837E816D815C814B812F8109C074
:101440003801F4E06F0E711CF80140815181628116
:10145000738175018E010F5F1F4F8AE037C038011D
:10146000F2E06F0E711CF8014081518160E070E084
:1014700009C03801F4E06F0E711CF8014081518100
:101480006281738175018E010F5F1F4F80E11EC065
:101490003801F2E06F0E711CF801408151812F3F3D
:1014A00009F420E160E070E00CC03801F4E06F0E58
:1014B000711CF80140815181628173812F3F09F4D1
:1014C00020E175018E010F5F1F4F82E00E94970699
:1014D00019C03801F4E06F0E711CF8016081718150
:1014E000828193810E9482070DC03801F2E06F0E65
:1014F000711CA501BE016F5F7F4FF8018081918152
:101500000E946308830122C085E29B830E944705F5
:1015100029813A81F601E20FF31FE059FE4F9B81CA
:1015200090832F5F3F4F3A83298310C0892D0E94FB
:10153000470529813A81F601E20FF31FE059FE4F7A
:1015400090822F5F3F4F3A83298343013401FFEF9D
:101550006F1A7F0A68CE27960FB6F894DEBF0FBECB
:10156000CDBFDF91CF911F910F91FF90EF90DF9052
:10157000CF90BF90AF909F908F907F906F90089585
:10158000FC018281938186179707ECF080E791E058
:101590009F938F931F921F921F921F920E94E808A1
:1015A00080E891E09F938F931F921F921F9281E09A
:1015B0008F930E94E8088DB79EB70C960FB6F894EB
:1015C0009EBF0FBE8DBF0895CF92DF92EF92FF9224
:1015D0000F931F93CF93DF9300D000D01F92CDB70E
:1015E000DEB7FE017096E190F1906F01F701808106
:1015F000882309F43DC1853209F032C187010F5FAC
:101600001F4FF701818190ED980F9A3078F420E018
:1016100090ED980F9A3058F4FAE02F9F900D112416
:10162000292F0F5F1F4FF8018081F2CF2FEF8535F3
:1016300009F4BCC080F58E3309F463C0B8F48E326F
:1016400009F471C040F4853209F406C18C3209F006
:101650000AC185E05FC08B3309F45BC08C3309F4A9
:1016600052C08A3309F0FFC086E054C0833409F4C5
:101670005DC038F48F3309F450C0823409F4C5C01A
:10168000F2C0863409F4D1C0833509F4DAC0843459
:1016900009F46CC0E8C0863609F4C7C0A8F48D35DB
:1016A000F9F148F4883509F496C08B3509F0DBC0B0
:1016B0000E945A08D8C08336C9F1843609F43FC065
:1016C000823609F0D0C094C0883709F47AC080F41B
:1016D000833709F4B6C0853709F0C5C07601F2E05A
:1016E000EF0EF11CF6014081518160E070E067C0AF
:1016F0008C3759F08D3759F08B3709F0B4C083E03F
:1017000009C080E007C081E005C082E003C084E03A
:1017100001C087E00E94B907A6C00E945708A3C075
:101720000E945D08A0C00E9460089DC07601F2E0A2
:10173000EF0EF11CF60180810E9447058BC07601F7
:10174000F2E0EF0EF11CF601C080D180D7FE08C098
:10175000D194C194D1088DE22D830E9447052D813B
:10176000A601662757FD6095762F29C07601F4E023
:10177000EF0EF11CF601408151816281738177FF88
:101780001EC070956095509541955F4F6F4F7F4F8C
:101790008DE22D8349835A836B837C830E944705A6
:1017A0007C816B815A8149812D8109C07601F4E0E9
:1017B000EF0EF11CF60140815181628173818AE054
:1017C00014C07601F2E0EF0EF11CF6014081518168
:1017D00060E070E009C07601F4E0EF0EF11CF60164
:1017E000408151816281738180E10E94000632C094
:1017F0007601F2E0EF0EF11CF601608171812F3F5E
:1018000009F420E180E090E00CC07601F4E0EF0EF6
:10181000F11CF60160817181828193812F3F09F46F
:1018200020E1422F0E94730515C07601F4E0EF0E0F
:10183000F11CF60160817181828193810E9482078F
:1018400009C07601F2E0EF0EF11CF6018081918172
:101850000E94B105670107C085E20E94470503C0E9
:101860000E94470587017801FFEFEF1AFF0ABECEFD
:101870000F900F900F900F900F90DF91CF911F91CD
:101880000F91FF90EF90DF90CF900895A1E21A2E74
:10189000AA1BBB1BFD010DC0AA1FBB1FEE1FFF1F14
:1018A000A217B307E407F50720F0A21BB30BE40B64
:1018B000F50B661F771F881F991F1A9469F76095AB
:1018C0007095809590959B01AC01BD01CF01089565
:1018D0005058BB27AA270ED070C161D130F066D115
:1018E00020F031F49F3F11F41EF456C10EF4E09540
:1018F000E7FB4CC1E92F72D180F3BA176207730777
:101900008407950718F071F49EF58AC10EF4E095EE
:101910000B2EBA2FA02D0B01B90190010C01CA01A9
:10192000A0011124FF27591B99F0593F50F4503E54
:1019300068F11A16F040A22F232F342F4427585F46
:10194000F3CF469537952795A795F0405395C9F75E
:101950007EF41F16BA0B620B730B840BBAF0915016
:10196000A1F0FF0FBB1F661F771F881FC2F70EC0B5
:10197000BA0F621F731F841F48F487957795679588
:10198000B795F7959E3F08F0B3CF9395880F08F071
:101990009927EE0F979587950895D4D008F481E0A4
:1019A00008950CD00AC102D140F0F9D030F021F4F2
:1019B0005F3F19F0EBC0511134C1EEC00FD198F365
:1019C0009923C9F35523B1F3951B550BBB27AA27C0
:1019D00062177307840738F09F5F5F4F220F331F32
:1019E000441FAA1FA9F333D00E2E3AF0E0E830D0FE
:1019F00091505040E695001CCAF729D0FE2F27D001
:101A0000660F771F881FBB1F261737074807AB07CE
:101A1000B0E809F0BB0B802DBF01FF2793585F4F43
:101A20002AF09E3F510568F0B1C0FBC05F3FECF368
:101A3000983EDCF3869577956795B795F7959F5F08
:101A4000C9F7880F911D9695879597F90895E1E05C
:101A5000660F771F881FBB1F621773078407BA07BB
:101A600020F0621B730B840BBA0BEE1F88F7E09516
:101A70000895BCD088F09F5790F0B92F9927B7519F
:101A8000A0F0D1F0660F771F881F991F1AF0BA9542
:101A9000C9F712C0B13081F0C3D0B1E00895C0C021
:101AA000672F782F8827B85F39F0B93FCCF3869538
:101AB00077956795B395D9F73EF490958095709595
:101AC00061957F4F8F4F9F4F0895E89409C097FB12
:101AD0003EF490958095709561957F4F8F4F9F4F05
:101AE0009923A9F0F92F96E9BB279395F695879549
:101AF00077956795B795F111F8CFFAF4BB0F11F40C
:101B000060FF1BC06F5F7F4F8F4F9F4F16C08823B2
:101B100011F096E911C0772321F09EE8872F762FE8
:101B200005C0662371F096E8862F70E060E02AF029
:101B30009A95660F771F881FDAF7880F9695879515
:101B400097F90895990F0008550FAA0BE0E8FEEFEA
:101B500016161706E807F907C0F012161306E40771
:101B6000F50798F0621B730B840B950B39F40A266A
:101B700061F0232B242B252B21F408950A2609F448
:101B8000A140A6958FEF811D811D089597F99F674C
:101B900080E870E060E008959FEF80EC08950024F5
:101BA0000A941616170618060906089500240A94C2
:101BB00012161306140605060895092E0394000C48
:101BC00011F4882352F0BB0F40F4BF2B11F460FFD7
:101BD00004C06F5F7F4F8F4F9F4F089557FD905800
:101BE000440F551F59F05F3F71F04795880F97FBE1
:101BF000991F61F09F3F79F087950895121613069B
:101C00001406551FF2CF4695F1DF08C016161706C9
:101C10001806991FF1CF86957105610508940895FE
:101C2000E894BB2766277727CB0197F908950BD057
:101C3000C4CFB5DF28F0BADF18F0952309F0A6CF9E
:101C4000ABCF1124EECFCADFA0F3959FD1F3950F50
:101C500050E0551F629FF001729FBB27F00DB11D30
:101C6000639FAA27F00DB11DAA1F649F6627B00DC0
:101C7000A11D661F829F2227B00DA11D621F739FA9
:101C8000B00DA11D621F839FA00D611D221F749FB7
:101C90003327A00D611D231F849F600D211D822FFE
:101CA000762F6A2F11249F5750408AF0E1F0882345
:101CB0004AF0EE0FFF1FBB1F661F771F881F915052
:101CC0005040A9F79E3F510570F060CFAACF5F3F0B
:101CD000ECF3983EDCF3869577956795B795F79585
:101CE000E7959F5FC1F7FE2B880F911D969587950D
:081CF00097F90895F894FFCF65
:101CF8002C01E803E8030180C090D04048505860A8
:101D080068707810181E1F1F1E181001030F1F1F60
:101D18000F03011B1B1B1B1B1B1B1B0000000000D0
:101D280000000000000000000000000103071F1F62
:101D38000703010E1111111F1B1B1F0004040E15B0
:0E1D480015110E25642F2564003E00200000BA
:00000001FF
